{
  "_format": "hh-sol-artifact-1",
  "contractName": "PlinkoGame",
  "sourceName": "contracts/PlinkoGame.sol",
  "abi": [
    {
      "inputs": [],
      "stateMutability": "nonpayable",
      "type": "constructor"
    },
    {
      "inputs": [],
      "name": "BetAlreadySettled",
      "type": "error"
    },
    {
      "inputs": [],
      "name": "BetAmountTooHigh",
      "type": "error"
    },
    {
      "inputs": [],
      "name": "BetAmountTooLow",
      "type": "error"
    },
    {
      "inputs": [],
      "name": "BetExpiredError",
      "type": "error"
    },
    {
      "inputs": [],
      "name": "BetNotExpired",
      "type": "error"
    },
    {
      "inputs": [],
      "name": "BetNotFound",
      "type": "error"
    },
    {
      "inputs": [],
      "name": "CommitmentAlreadyUsed",
      "type": "error"
    },
    {
      "inputs": [],
      "name": "CommitmentNotFound",
      "type": "error"
    },
    {
      "inputs": [],
      "name": "CommitmentWrongPlayer",
      "type": "error"
    },
    {
      "inputs": [
        {
          "internalType": "address",
          "name": "implementation",
          "type": "address"
        }
      ],
      "name": "ERC1967InvalidImplementation",
      "type": "error"
    },
    {
      "inputs": [],
      "name": "EnforcedPause",
      "type": "error"
    },
    {
      "inputs": [],
      "name": "ExpectedPause",
      "type": "error"
    },
    {
      "inputs": [],
      "name": "InsufficientHouseBalance",
      "type": "error"
    },
    {
      "inputs": [],
      "name": "InvalidConfigIndex",
      "type": "error"
    },
    {
      "inputs": [],
      "name": "InvalidInitialization",
      "type": "error"
    },
    {
      "inputs": [],
      "name": "InvalidLandingPosition",
      "type": "error"
    },
    {
      "inputs": [],
      "name": "InvalidPath",
      "type": "error"
    },
    {
      "inputs": [],
      "name": "InvalidToken",
      "type": "error"
    },
    {
      "inputs": [],
      "name": "NotInitializing",
      "type": "error"
    },
    {
      "inputs": [
        {
          "internalType": "address",
          "name": "owner",
          "type": "address"
        }
      ],
      "name": "OwnableInvalidOwner",
      "type": "error"
    },
    {
      "inputs": [
        {
          "internalType": "address",
          "name": "account",
          "type": "address"
        }
      ],
      "name": "OwnableUnauthorizedAccount",
      "type": "error"
    },
    {
      "inputs": [],
      "name": "PayoutTableNotSet",
      "type": "error"
    },
    {
      "inputs": [],
      "name": "ReentrancyGuardReentrantCall",
      "type": "error"
    },
    {
      "inputs": [
        {
          "internalType": "address",
          "name": "token",
          "type": "address"
        }
      ],
      "name": "SafeERC20FailedOperation",
      "type": "error"
    },
    {
      "inputs": [],
      "name": "TokenNotEnabled",
      "type": "error"
    },
    {
      "inputs": [],
      "name": "UUPSUnauthorizedCallContext",
      "type": "error"
    },
    {
      "inputs": [
        {
          "internalType": "bytes32",
          "name": "slot",
          "type": "bytes32"
        }
      ],
      "name": "UUPSUnsupportedProxiableUUID",
      "type": "error"
    },
    {
      "inputs": [],
      "name": "UnauthorizedSettler",
      "type": "error"
    },
    {
      "anonymous": false,
      "inputs": [
        {
          "indexed": true,
          "internalType": "bytes32",
          "name": "commitmentHash",
          "type": "bytes32"
        },
        {
          "indexed": true,
          "internalType": "address",
          "name": "player",
          "type": "address"
        },
        {
          "indexed": false,
          "internalType": "uint256",
          "name": "nonce",
          "type": "uint256"
        }
      ],
      "name": "CommitmentSubmitted",
      "type": "event"
    },
    {
      "anonymous": false,
      "inputs": [
        {
          "indexed": false,
          "internalType": "uint64",
          "name": "version",
          "type": "uint64"
        }
      ],
      "name": "Initialized",
      "type": "event"
    },
    {
      "anonymous": false,
      "inputs": [
        {
          "indexed": true,
          "internalType": "address",
          "name": "previousOwner",
          "type": "address"
        },
        {
          "indexed": true,
          "internalType": "address",
          "name": "newOwner",
          "type": "address"
        }
      ],
      "name": "OwnershipTransferred",
      "type": "event"
    },
    {
      "anonymous": false,
      "inputs": [
        {
          "indexed": false,
          "internalType": "address",
          "name": "account",
          "type": "address"
        }
      ],
      "name": "Paused",
      "type": "event"
    },
    {
      "anonymous": false,
      "inputs": [
        {
          "indexed": true,
          "internalType": "uint8",
          "name": "configIndex",
          "type": "uint8"
        },
        {
          "indexed": false,
          "internalType": "uint8",
          "name": "rows",
          "type": "uint8"
        },
        {
          "indexed": false,
          "internalType": "uint8",
          "name": "riskLevel",
          "type": "uint8"
        }
      ],
      "name": "PayoutTableUpdated",
      "type": "event"
    },
    {
      "anonymous": false,
      "inputs": [
        {
          "indexed": true,
          "internalType": "bytes32",
          "name": "commitmentHash",
          "type": "bytes32"
        },
        {
          "indexed": false,
          "internalType": "uint8",
          "name": "configIndex",
          "type": "uint8"
        },
        {
          "indexed": false,
          "internalType": "uint8[]",
          "name": "path",
          "type": "uint8[]"
        },
        {
          "indexed": false,
          "internalType": "uint8",
          "name": "landingPosition",
          "type": "uint8"
        },
        {
          "indexed": false,
          "internalType": "string",
          "name": "configLabel",
          "type": "string"
        }
      ],
      "name": "PlinkoBallPath",
      "type": "event"
    },
    {
      "anonymous": false,
      "inputs": [
        {
          "indexed": true,
          "internalType": "bytes32",
          "name": "commitmentHash",
          "type": "bytes32"
        },
        {
          "indexed": true,
          "internalType": "address",
          "name": "token",
          "type": "address"
        },
        {
          "indexed": false,
          "internalType": "uint256",
          "name": "amount",
          "type": "uint256"
        },
        {
          "indexed": false,
          "internalType": "uint8",
          "name": "configIndex",
          "type": "uint8"
        },
        {
          "indexed": false,
          "internalType": "uint256",
          "name": "nonce",
          "type": "uint256"
        },
        {
          "indexed": false,
          "internalType": "uint256",
          "name": "timestamp",
          "type": "uint256"
        }
      ],
      "name": "PlinkoBetDetails",
      "type": "event"
    },
    {
      "anonymous": false,
      "inputs": [
        {
          "indexed": true,
          "internalType": "bytes32",
          "name": "betId",
          "type": "bytes32"
        },
        {
          "indexed": true,
          "internalType": "address",
          "name": "player",
          "type": "address"
        }
      ],
      "name": "PlinkoBetExpired",
      "type": "event"
    },
    {
      "anonymous": false,
      "inputs": [
        {
          "indexed": true,
          "internalType": "bytes32",
          "name": "commitmentHash",
          "type": "bytes32"
        },
        {
          "indexed": true,
          "internalType": "address",
          "name": "player",
          "type": "address"
        },
        {
          "indexed": true,
          "internalType": "address",
          "name": "token",
          "type": "address"
        },
        {
          "indexed": false,
          "internalType": "uint256",
          "name": "amount",
          "type": "uint256"
        },
        {
          "indexed": false,
          "internalType": "uint8",
          "name": "configIndex",
          "type": "uint8"
        },
        {
          "indexed": false,
          "internalType": "uint8",
          "name": "rows",
          "type": "uint8"
        },
        {
          "indexed": false,
          "internalType": "uint8",
          "name": "riskLevel",
          "type": "uint8"
        },
        {
          "indexed": false,
          "internalType": "uint256",
          "name": "nonce",
          "type": "uint256"
        }
      ],
      "name": "PlinkoBetPlaced",
      "type": "event"
    },
    {
      "anonymous": false,
      "inputs": [
        {
          "indexed": true,
          "internalType": "bytes32",
          "name": "commitmentHash",
          "type": "bytes32"
        },
        {
          "indexed": true,
          "internalType": "address",
          "name": "player",
          "type": "address"
        },
        {
          "indexed": false,
          "internalType": "bool",
          "name": "profited",
          "type": "bool"
        },
        {
          "indexed": false,
          "internalType": "uint8",
          "name": "landingPosition",
          "type": "uint8"
        },
        {
          "indexed": false,
          "internalType": "uint32",
          "name": "payoutMultiplierBps",
          "type": "uint32"
        },
        {
          "indexed": false,
          "internalType": "uint256",
          "name": "betAmount",
          "type": "uint256"
        },
        {
          "indexed": false,
          "internalType": "uint256",
          "name": "payoutAmount",
          "type": "uint256"
        },
        {
          "indexed": false,
          "internalType": "int256",
          "name": "profitLoss",
          "type": "int256"
        },
        {
          "indexed": false,
          "internalType": "bytes32",
          "name": "serverSeed",
          "type": "bytes32"
        }
      ],
      "name": "PlinkoBetSettled",
      "type": "event"
    },
    {
      "anonymous": false,
      "inputs": [
        {
          "indexed": true,
          "internalType": "address",
          "name": "token",
          "type": "address"
        },
        {
          "indexed": false,
          "internalType": "bool",
          "name": "enabled",
          "type": "bool"
        }
      ],
      "name": "TokenConfigured",
      "type": "event"
    },
    {
      "anonymous": false,
      "inputs": [
        {
          "indexed": false,
          "internalType": "address",
          "name": "account",
          "type": "address"
        }
      ],
      "name": "Unpaused",
      "type": "event"
    },
    {
      "inputs": [],
      "name": "BET_EXPIRY",
      "outputs": [
        {
          "internalType": "uint256",
          "name": "",
          "type": "uint256"
        }
      ],
      "stateMutability": "view",
      "type": "function"
    },
    {
      "inputs": [],
      "name": "MAX_BET_BPS",
      "outputs": [
        {
          "internalType": "uint256",
          "name": "",
          "type": "uint256"
        }
      ],
      "stateMutability": "view",
      "type": "function"
    },
    {
      "inputs": [],
      "name": "MIN_BET",
      "outputs": [
        {
          "internalType": "uint256",
          "name": "",
          "type": "uint256"
        }
      ],
      "stateMutability": "view",
      "type": "function"
    },
    {
      "inputs": [],
      "name": "MULTIPLIER_DENOMINATOR",
      "outputs": [
        {
          "internalType": "uint256",
          "name": "",
          "type": "uint256"
        }
      ],
      "stateMutability": "view",
      "type": "function"
    },
    {
      "inputs": [
        {
          "internalType": "bytes32",
          "name": "",
          "type": "bytes32"
        }
      ],
      "name": "bets",
      "outputs": [
        {
          "internalType": "address",
          "name": "player",
          "type": "address"
        },
        {
          "internalType": "address",
          "name": "token",
          "type": "address"
        },
        {
          "internalType": "uint256",
          "name": "amount",
          "type": "uint256"
        },
        {
          "internalType": "uint8",
          "name": "configIndex",
          "type": "uint8"
        },
        {
          "internalType": "bytes32",
          "name": "commitmentHash",
          "type": "bytes32"
        },
        {
          "internalType": "uint256",
          "name": "nonce",
          "type": "uint256"
        },
        {
          "internalType": "uint256",
          "name": "timestamp",
          "type": "uint256"
        },
        {
          "internalType": "enum PlinkoGame.BetStatus",
          "name": "status",
          "type": "uint8"
        }
      ],
      "stateMutability": "view",
      "type": "function"
    },
    {
      "inputs": [],
      "name": "buxBankroll",
      "outputs": [
        {
          "internalType": "address",
          "name": "",
          "type": "address"
        }
      ],
      "stateMutability": "view",
      "type": "function"
    },
    {
      "inputs": [],
      "name": "buxToken",
      "outputs": [
        {
          "internalType": "address",
          "name": "",
          "type": "address"
        }
      ],
      "stateMutability": "view",
      "type": "function"
    },
    {
      "inputs": [
        {
          "internalType": "uint256",
          "name": "amount",
          "type": "uint256"
        },
        {
          "internalType": "uint8",
          "name": "configIndex",
          "type": "uint8"
        }
      ],
      "name": "calculateMaxPayout",
      "outputs": [
        {
          "internalType": "uint256",
          "name": "",
          "type": "uint256"
        }
      ],
      "stateMutability": "view",
      "type": "function"
    },
    {
      "inputs": [
        {
          "internalType": "bytes32",
          "name": "",
          "type": "bytes32"
        }
      ],
      "name": "commitments",
      "outputs": [
        {
          "internalType": "address",
          "name": "player",
          "type": "address"
        },
        {
          "internalType": "uint256",
          "name": "nonce",
          "type": "uint256"
        },
        {
          "internalType": "uint256",
          "name": "timestamp",
          "type": "uint256"
        },
        {
          "internalType": "bool",
          "name": "used",
          "type": "bool"
        },
        {
          "internalType": "bytes32",
          "name": "serverSeed",
          "type": "bytes32"
        }
      ],
      "stateMutability": "view",
      "type": "function"
    },
    {
      "inputs": [
        {
          "internalType": "address",
          "name": "token",
          "type": "address"
        },
        {
          "internalType": "bool",
          "name": "enabled",
          "type": "bool"
        }
      ],
      "name": "configureToken",
      "outputs": [],
      "stateMutability": "nonpayable",
      "type": "function"
    },
    {
      "inputs": [
        {
          "internalType": "bytes32",
          "name": "commitmentHash",
          "type": "bytes32"
        }
      ],
      "name": "getBet",
      "outputs": [
        {
          "components": [
            {
              "internalType": "address",
              "name": "player",
              "type": "address"
            },
            {
              "internalType": "address",
              "name": "token",
              "type": "address"
            },
            {
              "internalType": "uint256",
              "name": "amount",
              "type": "uint256"
            },
            {
              "internalType": "uint8",
              "name": "configIndex",
              "type": "uint8"
            },
            {
              "internalType": "bytes32",
              "name": "commitmentHash",
              "type": "bytes32"
            },
            {
              "internalType": "uint256",
              "name": "nonce",
              "type": "uint256"
            },
            {
              "internalType": "uint256",
              "name": "timestamp",
              "type": "uint256"
            },
            {
              "internalType": "enum PlinkoGame.BetStatus",
              "name": "status",
              "type": "uint8"
            }
          ],
          "internalType": "struct PlinkoGame.PlinkoBet",
          "name": "",
          "type": "tuple"
        }
      ],
      "stateMutability": "view",
      "type": "function"
    },
    {
      "inputs": [
        {
          "internalType": "bytes32",
          "name": "commitmentHash",
          "type": "bytes32"
        }
      ],
      "name": "getCommitment",
      "outputs": [
        {
          "components": [
            {
              "internalType": "address",
              "name": "player",
              "type": "address"
            },
            {
              "internalType": "uint256",
              "name": "nonce",
              "type": "uint256"
            },
            {
              "internalType": "uint256",
              "name": "timestamp",
              "type": "uint256"
            },
            {
              "internalType": "bool",
              "name": "used",
              "type": "bool"
            },
            {
              "internalType": "bytes32",
              "name": "serverSeed",
              "type": "bytes32"
            }
          ],
          "internalType": "struct PlinkoGame.Commitment",
          "name": "",
          "type": "tuple"
        }
      ],
      "stateMutability": "view",
      "type": "function"
    },
    {
      "inputs": [
        {
          "internalType": "uint8",
          "name": "configIndex",
          "type": "uint8"
        }
      ],
      "name": "getMaxBet",
      "outputs": [
        {
          "internalType": "uint256",
          "name": "",
          "type": "uint256"
        }
      ],
      "stateMutability": "view",
      "type": "function"
    },
    {
      "inputs": [
        {
          "internalType": "uint8",
          "name": "configIndex",
          "type": "uint8"
        }
      ],
      "name": "getMaxBetROGUE",
      "outputs": [
        {
          "internalType": "uint256",
          "name": "",
          "type": "uint256"
        }
      ],
      "stateMutability": "view",
      "type": "function"
    },
    {
      "inputs": [
        {
          "internalType": "uint8",
          "name": "configIndex",
          "type": "uint8"
        }
      ],
      "name": "getPayoutTable",
      "outputs": [
        {
          "internalType": "uint32[]",
          "name": "",
          "type": "uint32[]"
        }
      ],
      "stateMutability": "view",
      "type": "function"
    },
    {
      "inputs": [
        {
          "internalType": "address",
          "name": "player",
          "type": "address"
        },
        {
          "internalType": "uint256",
          "name": "offset",
          "type": "uint256"
        },
        {
          "internalType": "uint256",
          "name": "limit",
          "type": "uint256"
        }
      ],
      "name": "getPlayerBetHistory",
      "outputs": [
        {
          "internalType": "bytes32[]",
          "name": "",
          "type": "bytes32[]"
        }
      ],
      "stateMutability": "view",
      "type": "function"
    },
    {
      "inputs": [
        {
          "internalType": "uint8",
          "name": "configIndex",
          "type": "uint8"
        }
      ],
      "name": "getPlinkoConfig",
      "outputs": [
        {
          "components": [
            {
              "internalType": "uint8",
              "name": "rows",
              "type": "uint8"
            },
            {
              "internalType": "uint8",
              "name": "riskLevel",
              "type": "uint8"
            },
            {
              "internalType": "uint8",
              "name": "numPositions",
              "type": "uint8"
            },
            {
              "internalType": "uint32",
              "name": "maxMultiplierBps",
              "type": "uint32"
            }
          ],
          "internalType": "struct PlinkoGame.PlinkoConfig",
          "name": "",
          "type": "tuple"
        }
      ],
      "stateMutability": "view",
      "type": "function"
    },
    {
      "inputs": [],
      "name": "initialize",
      "outputs": [],
      "stateMutability": "nonpayable",
      "type": "function"
    },
    {
      "inputs": [],
      "name": "owner",
      "outputs": [
        {
          "internalType": "address",
          "name": "",
          "type": "address"
        }
      ],
      "stateMutability": "view",
      "type": "function"
    },
    {
      "inputs": [],
      "name": "pause",
      "outputs": [],
      "stateMutability": "nonpayable",
      "type": "function"
    },
    {
      "inputs": [],
      "name": "paused",
      "outputs": [
        {
          "internalType": "bool",
          "name": "",
          "type": "bool"
        }
      ],
      "stateMutability": "view",
      "type": "function"
    },
    {
      "inputs": [
        {
          "internalType": "uint8",
          "name": "",
          "type": "uint8"
        },
        {
          "internalType": "uint256",
          "name": "",
          "type": "uint256"
        }
      ],
      "name": "payoutTables",
      "outputs": [
        {
          "internalType": "uint32",
          "name": "",
          "type": "uint32"
        }
      ],
      "stateMutability": "view",
      "type": "function"
    },
    {
      "inputs": [
        {
          "internalType": "uint256",
          "name": "amount",
          "type": "uint256"
        },
        {
          "internalType": "uint8",
          "name": "configIndex",
          "type": "uint8"
        },
        {
          "internalType": "bytes32",
          "name": "commitmentHash",
          "type": "bytes32"
        }
      ],
      "name": "placeBet",
      "outputs": [],
      "stateMutability": "nonpayable",
      "type": "function"
    },
    {
      "inputs": [
        {
          "internalType": "uint256",
          "name": "amount",
          "type": "uint256"
        },
        {
          "internalType": "uint8",
          "name": "configIndex",
          "type": "uint8"
        },
        {
          "internalType": "bytes32",
          "name": "commitmentHash",
          "type": "bytes32"
        }
      ],
      "name": "placeBetROGUE",
      "outputs": [],
      "stateMutability": "payable",
      "type": "function"
    },
    {
      "inputs": [
        {
          "internalType": "address",
          "name": "",
          "type": "address"
        },
        {
          "internalType": "uint256",
          "name": "",
          "type": "uint256"
        }
      ],
      "name": "playerBetHistory",
      "outputs": [
        {
          "internalType": "bytes32",
          "name": "",
          "type": "bytes32"
        }
      ],
      "stateMutability": "view",
      "type": "function"
    },
    {
      "inputs": [
        {
          "internalType": "address",
          "name": "",
          "type": "address"
        },
        {
          "internalType": "uint256",
          "name": "",
          "type": "uint256"
        }
      ],
      "name": "playerCommitments",
      "outputs": [
        {
          "internalType": "bytes32",
          "name": "",
          "type": "bytes32"
        }
      ],
      "stateMutability": "view",
      "type": "function"
    },
    {
      "inputs": [
        {
          "internalType": "address",
          "name": "",
          "type": "address"
        }
      ],
      "name": "playerNonces",
      "outputs": [
        {
          "internalType": "uint256",
          "name": "",
          "type": "uint256"
        }
      ],
      "stateMutability": "view",
      "type": "function"
    },
    {
      "inputs": [
        {
          "internalType": "uint256",
          "name": "",
          "type": "uint256"
        }
      ],
      "name": "plinkoConfigs",
      "outputs": [
        {
          "internalType": "uint8",
          "name": "rows",
          "type": "uint8"
        },
        {
          "internalType": "uint8",
          "name": "riskLevel",
          "type": "uint8"
        },
        {
          "internalType": "uint8",
          "name": "numPositions",
          "type": "uint8"
        },
        {
          "internalType": "uint32",
          "name": "maxMultiplierBps",
          "type": "uint32"
        }
      ],
      "stateMutability": "view",
      "type": "function"
    },
    {
      "inputs": [],
      "name": "proxiableUUID",
      "outputs": [
        {
          "internalType": "bytes32",
          "name": "",
          "type": "bytes32"
        }
      ],
      "stateMutability": "view",
      "type": "function"
    },
    {
      "inputs": [
        {
          "internalType": "bytes32",
          "name": "commitmentHash",
          "type": "bytes32"
        }
      ],
      "name": "refundExpiredBet",
      "outputs": [],
      "stateMutability": "nonpayable",
      "type": "function"
    },
    {
      "inputs": [],
      "name": "renounceOwnership",
      "outputs": [],
      "stateMutability": "nonpayable",
      "type": "function"
    },
    {
      "inputs": [],
      "name": "rogueBankroll",
      "outputs": [
        {
          "internalType": "address",
          "name": "",
          "type": "address"
        }
      ],
      "stateMutability": "view",
      "type": "function"
    },
    {
      "inputs": [
        {
          "internalType": "address",
          "name": "_buxBankroll",
          "type": "address"
        }
      ],
      "name": "setBUXBankroll",
      "outputs": [],
      "stateMutability": "nonpayable",
      "type": "function"
    },
    {
      "inputs": [
        {
          "internalType": "address",
          "name": "_buxToken",
          "type": "address"
        }
      ],
      "name": "setBUXToken",
      "outputs": [],
      "stateMutability": "nonpayable",
      "type": "function"
    },
    {
      "inputs": [
        {
          "internalType": "uint8",
          "name": "configIndex",
          "type": "uint8"
        },
        {
          "internalType": "uint32[]",
          "name": "multipliers",
          "type": "uint32[]"
        }
      ],
      "name": "setPayoutTable",
      "outputs": [],
      "stateMutability": "nonpayable",
      "type": "function"
    },
    {
      "inputs": [
        {
          "internalType": "address",
          "name": "_rogueBankroll",
          "type": "address"
        }
      ],
      "name": "setROGUEBankroll",
      "outputs": [],
      "stateMutability": "nonpayable",
      "type": "function"
    },
    {
      "inputs": [
        {
          "internalType": "address",
          "name": "_settler",
          "type": "address"
        }
      ],
      "name": "setSettler",
      "outputs": [],
      "stateMutability": "nonpayable",
      "type": "function"
    },
    {
      "inputs": [
        {
          "internalType": "bytes32",
          "name": "commitmentHash",
          "type": "bytes32"
        },
        {
          "internalType": "bytes32",
          "name": "serverSeed",
          "type": "bytes32"
        },
        {
          "internalType": "uint8[]",
          "name": "path",
          "type": "uint8[]"
        },
        {
          "internalType": "uint8",
          "name": "landingPosition",
          "type": "uint8"
        }
      ],
      "name": "settleBet",
      "outputs": [],
      "stateMutability": "nonpayable",
      "type": "function"
    },
    {
      "inputs": [
        {
          "internalType": "bytes32",
          "name": "commitmentHash",
          "type": "bytes32"
        },
        {
          "internalType": "bytes32",
          "name": "serverSeed",
          "type": "bytes32"
        },
        {
          "internalType": "uint8[]",
          "name": "path",
          "type": "uint8[]"
        },
        {
          "internalType": "uint8",
          "name": "landingPosition",
          "type": "uint8"
        }
      ],
      "name": "settleBetROGUE",
      "outputs": [],
      "stateMutability": "nonpayable",
      "type": "function"
    },
    {
      "inputs": [],
      "name": "settler",
      "outputs": [
        {
          "internalType": "address",
          "name": "",
          "type": "address"
        }
      ],
      "stateMutability": "view",
      "type": "function"
    },
    {
      "inputs": [
        {
          "internalType": "bytes32",
          "name": "commitmentHash",
          "type": "bytes32"
        },
        {
          "internalType": "address",
          "name": "player",
          "type": "address"
        },
        {
          "internalType": "uint256",
          "name": "nonce",
          "type": "uint256"
        }
      ],
      "name": "submitCommitment",
      "outputs": [],
      "stateMutability": "nonpayable",
      "type": "function"
    },
    {
      "inputs": [
        {
          "internalType": "address",
          "name": "",
          "type": "address"
        }
      ],
      "name": "tokenConfigs",
      "outputs": [
        {
          "internalType": "bool",
          "name": "enabled",
          "type": "bool"
        }
      ],
      "stateMutability": "view",
      "type": "function"
    },
    {
      "inputs": [],
      "name": "totalBetsPlaced",
      "outputs": [
        {
          "internalType": "uint256",
          "name": "",
          "type": "uint256"
        }
      ],
      "stateMutability": "view",
      "type": "function"
    },
    {
      "inputs": [],
      "name": "totalBetsSettled",
      "outputs": [
        {
          "internalType": "uint256",
          "name": "",
          "type": "uint256"
        }
      ],
      "stateMutability": "view",
      "type": "function"
    },
    {
      "inputs": [
        {
          "internalType": "address",
          "name": "newOwner",
          "type": "address"
        }
      ],
      "name": "transferOwnership",
      "outputs": [],
      "stateMutability": "nonpayable",
      "type": "function"
    },
    {
      "inputs": [],
      "name": "unpause",
      "outputs": [],
      "stateMutability": "nonpayable",
      "type": "function"
    },
    {
      "inputs": [
        {
          "internalType": "address",
          "name": "newImplementation",
          "type": "address"
        },
        {
          "internalType": "bytes",
          "name": "data",
          "type": "bytes"
        }
      ],
      "name": "upgradeToAndCall",
      "outputs": [],
      "stateMutability": "payable",
      "type": "function"
    },
    {
      "stateMutability": "payable",
      "type": "receive"
    }
  ],
  "bytecode": "0x60a0604052306080523480156200001557600080fd5b506200002062000026565b620000bd565b60005468010000000000000000900460ff1615620000575760405163f92ee8a960e01b815260040160405180910390fd5b6000546001600160401b0390811614620000bb57600080546001600160401b0319166001600160401b039081179091556040519081527fc7f505b2f371ae2175ee4913f4499e1f2633a7b5936321eed1cdaeb6115181d29060200160405180910390a15b565b608051614189620000e06000396000818161164101526116a401526141896000f3fe60806040526004361061028c5760003560e01c8063715018a61161015a578063bc754aef116100c1578063e72ab90b1161007a578063e72ab90b146109f3578063f1df500014610a13578063f2fde38b14610a33578063f44132fc14610a53578063fa8059bd14610a73578063fe6ca78214610a9357600080fd5b8063bc754aef146108a9578063bdb454b4146108c9578063c902c3ae146108de578063d088473b14610963578063d2f0576014610983578063de9e8577146109d357600080fd5b80638d53255c116101135780638d53255c146107d05780638da5cb5b146107f05780639af267fe14610829578063ab221a7614610849578063b35b573414610869578063bbddf77a1461088957600080fd5b8063715018a6146105e65780637795820c146105fb5780638129fc1c146106e6578063839df945146106fb5780638456cb59146107865780638578c7f31461079b57600080fd5b80633b893db1116101fe57806352d1902d116101b757806352d1902d146105235780635c975abb146105385780636540742f1461055057806368fca6131461056c5780636929c7911461059957806369abf10b146105c657600080fd5b80633b893db11461044b5780633e8cdddd146104b25780633f4ba83a146104c55780634749d25b146104da5780634c883800146104f05780634f1ef2861461051057600080fd5b806319ead6fa1161025057806319ead6fa146103395780631b69dc5f146103665780631ed3ec5e146103a657806321e29edc146103c657806328bb1ee8146103e657806337e8c09e1461041e57600080fd5b806302581cde1461029857806304fc9d7c146102ba57806306d775b9146102e357806307f19eba146102f95780631283147b1461031957600080fd5b3661029357005b600080fd5b3480156102a457600080fd5b506102b86102b33660046137f0565b610aa9565b005b3480156102c657600080fd5b506102d060135481565b6040519081526020015b60405180910390f35b3480156102ef57600080fd5b506102d060145481565b34801561030557600080fd5b506102b8610314366004613825565b610d3c565b34801561032557600080fd5b506102b8610334366004613851565b610d66565b34801561034557600080fd5b506102d0610354366004613825565b600e6020526000908152604090205481565b34801561037257600080fd5b50610396610381366004613825565b60186020526000908152604090205460ff1681565b60405190151581526020016102da565b3480156103b257600080fd5b506102d06103c1366004613886565b6110e3565b3480156103d257600080fd5b506102b86103e1366004613825565b611182565b3480156103f257600080fd5b506102d06104013660046138a1565b601160209081526000928352604080842090915290825290205481565b34801561042a57600080fd5b5061043e6104393660046137f0565b6111ac565b6040516102da9190613903565b34801561045757600080fd5b5061046b610466366004613886565b61129a565b6040516102da9190600060808201905060ff835116825260ff602084015116602083015260ff604084015116604083015263ffffffff606084015116606083015292915050565b6102b86104c0366004613851565b61131d565b3480156104d157600080fd5b506102b86115fb565b3480156104e657600080fd5b506102d0610e1081565b3480156104fc57600080fd5b506102b861050b366004613825565b61160d565b6102b861051e36600461398a565b611637565b34801561052f57600080fd5b506102d0611697565b34801561054457600080fd5b5060025460ff16610396565b34801561055c57600080fd5b506102d0670de0b6b3a764000081565b34801561057857600080fd5b5061058c610587366004613a4c565b611707565b6040516102da9190613a7f565b3480156105a557600080fd5b506105b96105b4366004613886565b611821565b6040516102da9190613ac3565b3480156105d257600080fd5b506102b86105e1366004613b0f565b6118b3565b3480156105f257600080fd5b506102b8611927565b34801561060757600080fd5b5061069e6106163660046137f0565b6040805160a08101825260008082526020820181905291810182905260608101829052608081019190915250600090815260106020908152604091829020825160a08101845281546001600160a01b03168152600182015492810192909252600281015492820192909252600382015460ff1615156060820152600490910154608082015290565b6040516102da919081516001600160a01b0316815260208083015190820152604080830151908201526060808301511515908201526080918201519181019190915260a00190565b3480156106f257600080fd5b506102b8611939565b34801561070757600080fd5b506107526107163660046137f0565b601060205260009081526040902080546001820154600283015460038401546004909401546001600160a01b03909316939192909160ff169085565b604080516001600160a01b03909616865260208601949094529284019190915215156060830152608082015260a0016102da565b34801561079257600080fd5b506102b8611bdb565b3480156107a757600080fd5b506107bb6107b6366004613b46565b611beb565b60405163ffffffff90911681526020016102da565b3480156107dc57600080fd5b506102b86107eb366004613b62565b611c34565b3480156107fc57600080fd5b50600054600160481b90046001600160a01b03165b6040516001600160a01b0390911681526020016102da565b34801561083557600080fd5b506102d06108443660046138a1565b611d63565b34801561085557600080fd5b50601254610811906001600160a01b031681565b34801561087557600080fd5b506102b8610884366004613bd3565b611d94565b34801561089557600080fd5b506102b86108a4366004613825565b612286565b3480156108b557600080fd5b50601554610811906001600160a01b031681565b3480156108d557600080fd5b506102d0600a81565b3480156108ea57600080fd5b5061094f6108f93660046137f0565b600d60205260009081526040902080546001820154600283015460038401546004850154600586015460068701546007909701546001600160a01b03968716979690951695939460ff9384169492939192911688565b6040516102da989796959493929190613c3b565b34801561096f57600080fd5b506102b861097e366004613bd3565b6122b0565b34801561098f57600080fd5b506109a361099e3660046137f0565b612677565b6040805160ff95861681529385166020850152919093169082015263ffffffff90911660608201526080016102da565b3480156109df57600080fd5b506102d06109ee366004613c93565b6126b2565b3480156109ff57600080fd5b506102d0610a0e366004613886565b6126f9565b348015610a1f57600080fd5b50601654610811906001600160a01b031681565b348015610a3f57600080fd5b506102b8610a4e366004613825565b6127f2565b348015610a5f57600080fd5b506102b8610a6e366004613cbf565b61282d565b348015610a7f57600080fd5b50601754610811906001600160a01b031681565b348015610a9f57600080fd5b506102d061271081565b610ab1612b6b565b6000818152600d6020526040902080546001600160a01b0316610ae75760405163469bfa9160e01b815260040160405180910390fd5b6000600782015460ff166004811115610b0257610b026138cb565b14610b20576040516305d09e5f60e01b815260040160405180910390fd5b610e108160060154610b329190613d28565b4211610b51576040516307a899a160e01b815260040160405180910390fd5b60078101805460ff1916600417905560028101546003820154600091610b799160ff166126b2565b604080516000815260208101909152601754600185015492935090916001600160a01b03918216911603610c44576016548354600285015460038601546005870154604051631799deb360e11b81526001600160a01b0395861695632f33bd6695610bfb959116938b93919260ff909116916000918a91908c90600401613d79565b6020604051808303816000875af1158015610c1a573d6000803e3d6000fd5b505050506040513d601f19601f82011682018060405250810190610c3e9190613dd1565b50610cdf565b6015548354600285015460038601546005870154604051632131a23360e21b81526001600160a01b03958616956384c688cc95610c9a959116938b939192839260ff909216916000918b91908d90600401613dee565b6020604051808303816000875af1158015610cb9573d6000803e3d6000fd5b505050506040513d601f19601f82011682018060405250810190610cdd9190613dd1565b505b60148054906000610cef83613e4e565b909155505082546040516001600160a01b039091169085907f7ae8e0b7d54a24fb0672175384be66fff43f630ff0e9a4a94c89f8fd533df5da90600090a3505050610d3960018055565b50565b610d44612b9b565b601280546001600160a01b0319166001600160a01b0392909216919091179055565b610d6e612b6b565b610d76612bd0565b610d7f81612bf4565b60088260ff161115610da45760405163da056e1d60e01b815260040160405180910390fd5b60ff82166000908152600c60205260408120549003610dd657604051630455d02360e21b815260040160405180910390fd5b60038260ff1660098110610dec57610dec613e67565b01546301000000900463ffffffff16600003610e1b57604051630455d02360e21b815260040160405180910390fd5b6017546001600160a01b031660009081526018602052604090205460ff16610e5657604051631fcf8c4760e11b815260040160405180910390fd5b670de0b6b3a7640000831015610e7f5760405163f2c2fd8b60e01b815260040160405180910390fd5b6016546000906001600160a01b0316632030b70084600360ff821660098110610eaa57610eaa613e67565b015460405160e084901b6001600160e01b031916815260ff90921660048301526301000000900463ffffffff166024820152604401602060405180830381865afa158015610efc573d6000803e3d6000fd5b505050506040513d601f19601f82011682018060405250810190610f209190613e7d565b905080841115610f4357604051632a79844f60e11b815260040160405180910390fd5b6000610f4f85856126b2565b90506000601660009054906101000a90046001600160a01b03166001600160a01b03166397b437bd6040518163ffffffff1660e01b815260040160c060405180830381865afa158015610fa6573d6000803e3d6000fd5b505050506040513d601f19601f82011682018060405250810190610fca9190613e96565b5050935050505081811015610ff257604051639c220f0360e01b815260040160405180910390fd5b601654601754611011916001600160a01b039182169133911689612c8b565b60008481526010602052604090819020600101546016549151632cb05a7760e21b8152600481018790523360248201526044810189905260ff881660648201526084810182905260a4810185905290916001600160a01b03169063b2c169dc9060c4016020604051808303816000875af1158015611093573d6000803e3d6000fd5b505050506040513d601f19601f820116820180604052508101906110b79190613dd1565b506017546110d1906001600160a01b031688888885612ce5565b505050506110de60018055565b505050565b600060088260ff16111561110a5760405163da056e1d60e01b815260040160405180910390fd5b601554604080516397b437bd60e01b815290516000926001600160a01b0316916397b437bd9160048083019260809291908290030181865afa158015611154573d6000803e3d6000fd5b505050506040513d601f19601f820116820180604052508101906111789190613ee0565b9695505050505050565b61118a612b9b565b601780546001600160a01b0319166001600160a01b0392909216919091179055565b6111f16040805161010081018252600080825260208201819052918101829052606081018290526080810182905260a0810182905260c081018290529060e082015290565b6000828152600d602090815260409182902082516101008101845281546001600160a01b03908116825260018301541692810192909252600281015492820192909252600382015460ff90811660608301526004808401546080840152600584015460a0840152600684015460c0840152600784015492939260e08501921690811115611280576112806138cb565b6004811115611291576112916138cb565b90525092915050565b60408051608081018252600080825260208201819052918101829052606081019190915260038260ff16600981106112d4576112d4613e67565b60408051608081018252929091015460ff8082168452610100820481166020850152620100008204169183019190915263ffffffff630100000090910416606082015292915050565b611325612b6b565b61132d612bd0565b8234146113815760405162461bcd60e51b815260206004820152601b60248201527f6d73672e76616c7565206d757374206d6174636820616d6f756e74000000000060448201526064015b60405180910390fd5b61138a81612bf4565b60088260ff1611156113af5760405163da056e1d60e01b815260040160405180910390fd5b60ff82166000908152600c602052604081205490036113e157604051630455d02360e21b815260040160405180910390fd5b60038260ff16600981106113f7576113f7613e67565b01546301000000900463ffffffff1660000361142657604051630455d02360e21b815260040160405180910390fd5b670de0b6b3a764000083101561144f5760405163f2c2fd8b60e01b815260040160405180910390fd5b6000806000601560009054906101000a90046001600160a01b03166001600160a01b03166397b437bd6040518163ffffffff1660e01b8152600401608060405180830381865afa1580156114a7573d6000803e3d6000fd5b505050506040513d601f19601f820116820180604052508101906114cb9190613ee0565b93509350509250818610156114f35760405163f2c2fd8b60e01b815260040160405180910390fd5b8086111561151457604051632a79844f60e11b815260040160405180910390fd5b600061152087876126b2565b90508084101561154357604051639c220f0360e01b815260040160405180910390fd5b600085815260106020526040908190206001015460155491516372b2842360e01b81526004810188905260ff89166024820152604481018290526064810184905290916001600160a01b0316906372b28423908a9060840160206040518083038185885af11580156115b9573d6000803e3d6000fd5b50505050506040513d601f19601f820116820180604052508101906115de9190613dd1565b506115ed600089898985612ce5565b50505050506110de60018055565b611603612b9b565b61160b612ee3565b565b611615612b9b565b601580546001600160a01b0319166001600160a01b0392909216919091179055565b6001600160a01b037f00000000000000000000000000000000000000000000000000000000000000001630036116805760405163703e46dd60e11b815260040160405180910390fd5b61168982612f35565b6116938282612f3d565b5050565b6000306001600160a01b037f000000000000000000000000000000000000000000000000000000000000000016146116e25760405163703e46dd60e11b815260040160405180910390fd5b507f360894a13ba1a3210667c828492db98dca3e2076cc3735a920a3ca505d382bbc90565b6001600160a01b0383166000908152600f60205260409020805460609190808510611744575050604080516000815260208101909152905061181a565b60006117508587613d28565b90508181111561175d5750805b60006117698783613f16565b905060008167ffffffffffffffff81111561178657611786613974565b6040519080825280602002602001820160405280156117af578160200160208202803683370190505b50905060005b8281101561181257856117c8828b613d28565b815481106117d8576117d8613e67565b90600052602060002001548282815181106117f5576117f5613e67565b60209081029190910101528061180a81613e4e565b9150506117b5565b509450505050505b9392505050565b60ff81166000908152600c60209081526040918290208054835181840281018401909452808452606093928301828280156118a757602002820191906000526020600020906000905b82829054906101000a900463ffffffff1663ffffffff168152602001906004019060208260030104928301926001038202915080841161186a5790505b50505050509050919050565b6118bb612b9b565b60408051602080820183528315158083526001600160a01b0386166000818152601884528590209351845460ff191690151517909355925192835290917f644d1c3c30a6c2c86213723bbdb4a97f9f35068beda38b6ca0cb5e7e043459ff910160405180910390a25050565b61192f612b9b565b61160b6000612fee565b6000805460ff600160401b820416159167ffffffffffffffff90911690811580156119615750825b905060008267ffffffffffffffff16600114801561197e5750303b155b90508115801561198c575080155b156119aa5760405163f92ee8a960e01b815260040160405180910390fd5b6000805467ffffffffffffffff1916600117905583156119d8576000805460ff60401b1916600160401b1790555b6119e133613060565b6119e9613093565b6119f16130c5565b6119f96130f7565b6040805160808082018352600880835260006020808501829052600985870181905260609586018390526003805466ffffffffffffff199081166209000817909155875180870189528581526001818501819052818a018490529088018590526004805483166209010817905588518088018a528681526002818601819052818b018590529089018690526005805484166209020817905589518089018b52600c808252818701889052600d828d01819052918b01889052600680548616620d000c1790558b51808b018d52818152808801859052808d018390528b01889052600780548616620d010c1790558b51808b018d52908152808701839052808c0191909152890186905286548316620d020c1790965588518088018a5260108082528186018790526011828c01819052918a0187905284548416621100101790945589518089018b5284815280860192909252818a01819052908801859052600a8054831662110110179055885196870189529186529185019390935294830191909152910152600b8054909116621102101790558315611bd5576000805460ff60401b19169055604051600181527fc7f505b2f371ae2175ee4913f4499e1f2633a7b5936321eed1cdaeb6115181d29060200160405180910390a15b50505050565b611be3612b9b565b61160b613121565b600c6020528160005260406000208181548110611c0757600080fd5b9060005260206000209060089182820401919006600402915091509054906101000a900463ffffffff1681565b6012546001600160a01b03163314801590611c735750600054600160481b90046001600160a01b03166001600160a01b0316336001600160a01b031614155b15611c9157604051631de3f8c960e21b815260040160405180910390fd5b6040805160a0810182526001600160a01b03848116808352602080840186815242858701908152600060608701818152608088018281528c835260108652898320985189546001600160a01b03191698169790971788559251600188015590516002870155905160038601805460ff1916911515919091179055925160049094019390935580825260118352838220858352835290839020869055915183815285917ff8f05d40bc4d4e9faea7feff0042a427e6885d114dfdea1db6f96f73088ef4ca910160405180910390a3505050565b600f6020528160005260406000208181548110611d7f57600080fd5b90600052602060002001600091509150505481565b6012546001600160a01b03163314801590611dd35750600054600160481b90046001600160a01b03166001600160a01b0316336001600160a01b031614155b15611df157604051631de3f8c960e21b815260040160405180910390fd5b611df9612b6b565b6000858152600d6020526040902080546001600160a01b0316611e2f5760405163469bfa9160e01b815260040160405180910390fd5b6000600782015460ff166004811115611e4a57611e4a6138cb565b14611e68576040516305d09e5f60e01b815260040160405180910390fd5b610e108160060154611e7a9190613d28565b421115611e9a5760405163b367976160e01b815260040160405180910390fd5b60175460018201546001600160a01b03908116911614611ecd5760405163c1ab6dc160e01b815260040160405180910390fd5b6003810154611ee49085908590859060ff1661315e565b600381015460ff9081166000908152600c60205260408120805491929091908516908110611f1457611f14613e67565b90600052602060002090600891828204019190066004029054906101000a900463ffffffff16905060006127108263ffffffff168460020154611f579190613f29565b611f619190613f40565b60028401546003850154919250600091611f7e919060ff166126b2565b9050836002015482111561206d576007840180546001919060ff191682800217905550601660009054906101000a90046001600160a01b03166001600160a01b03166384c688cc8560000160009054906101000a90046001600160a01b03168b8760020154868960030160009054906101000a900460ff168b8e8e8d600501548b6040518b63ffffffff1660e01b81526004016120249a99989796959493929190613f98565b6020604051808303816000875af1158015612043573d6000803e3d6000fd5b505050506040513d601f19601f820116820180604052508101906120679190613dd1565b506121ee565b8360020154821015612112576007840180546002919060ff19166001830217905550601660009054906101000a90046001600160a01b03166001600160a01b0316633834ef688560000160009054906101000a90046001600160a01b03168b8760020154868960030160009054906101000a900460ff168b8e8e8d600501548b6040518b63ffffffff1660e01b81526004016120249a99989796959493929190613f98565b6007840180546003919060ff19166001830217905550601660009054906101000a90046001600160a01b03166001600160a01b0316632f33bd668560000160009054906101000a90046001600160a01b03168b87600201548860030160009054906101000a900460ff168a8d8d8c600501548a6040518a63ffffffff1660e01b81526004016121a999989796959493929190613ffa565b6020604051808303816000875af11580156121c8573d6000803e3d6000fd5b505050506040513d601f19601f820116820180604052508101906121ec9190613dd1565b505b6000898152601060205260408120600401899055601480549161221083613e4e565b909155505083546002850154612237918b916001600160a01b039091169085878a8e6132f9565b60018401546002850154600386015460058701546006880154612272948e946001600160a01b0390911693909260ff909116918b8e8e613389565b5050505061227f60018055565b5050505050565b61228e612b9b565b601680546001600160a01b0319166001600160a01b0392909216919091179055565b6012546001600160a01b031633148015906122ef5750600054600160481b90046001600160a01b03166001600160a01b0316336001600160a01b031614155b1561230d57604051631de3f8c960e21b815260040160405180910390fd5b612315612b6b565b6000858152600d6020526040902080546001600160a01b031661234b5760405163469bfa9160e01b815260040160405180910390fd5b6000600782015460ff166004811115612366576123666138cb565b14612384576040516305d09e5f60e01b815260040160405180910390fd5b610e1081600601546123969190613d28565b4211156123b65760405163b367976160e01b815260040160405180910390fd5b60018101546001600160a01b0316156123e25760405163c1ab6dc160e01b815260040160405180910390fd5b60038101546123f99085908590859060ff1661315e565b600381015460ff9081166000908152600c6020526040812080549192909190851690811061242957612429613e67565b90600052602060002090600891828204019190066004029054906101000a900463ffffffff16905060006127108263ffffffff16846002015461246c9190613f29565b6124769190613f40565b60028401546003850154919250600091612493919060ff166126b2565b90508360020154821115612539576007840180546001919060ff191682800217905550601560009054906101000a90046001600160a01b03166001600160a01b03166384c688cc8560000160009054906101000a90046001600160a01b03168b8760020154868960030160009054906101000a900460ff168b8e8e8d600501548b6040518b63ffffffff1660e01b81526004016120249a99989796959493929190613f98565b83600201548210156125de576007840180546002919060ff19166001830217905550601560009054906101000a90046001600160a01b03166001600160a01b0316633834ef688560000160009054906101000a90046001600160a01b03168b8760020154868960030160009054906101000a900460ff168b8e8e8d600501548b6040518b63ffffffff1660e01b81526004016120249a99989796959493929190613f98565b6007840180546003919060ff19166001830217905550601560009054906101000a90046001600160a01b03166001600160a01b03166384c688cc8560000160009054906101000a90046001600160a01b03168b8760020154868960030160009054906101000a900460ff168b8e8e8d600501548b6040518b63ffffffff1660e01b81526004016121a99a99989796959493929190613f98565b6003816009811061268757600080fd5b015460ff80821692506101008204811691620100008104909116906301000000900463ffffffff1684565b600061271060038360ff16600981106126cd576126cd613e67565b01546126e6906301000000900463ffffffff1685613f29565b6126f09190613f40565b90505b92915050565b600060088260ff1611156127205760405163da056e1d60e01b815260040160405180910390fd5b60038260ff166009811061273657612736613e67565b01546301000000900463ffffffff1660000361275457506000919050565b6016546001600160a01b0316632030b70083600360ff82166009811061277c5761277c613e67565b015460405160e084901b6001600160e01b031916815260ff90921660048301526301000000900463ffffffff166024820152604401602060405180830381865afa1580156127ce573d6000803e3d6000fd5b505050506040513d601f19601f820116820180604052508101906126f39190613e7d565b6127fa612b9b565b6001600160a01b03811661282457604051631e4fbdf760e01b815260006004820152602401611378565b610d3981612fee565b612835612b9b565b60088360ff16111561285a5760405163da056e1d60e01b815260040160405180910390fd5b60038360ff166009811061287057612870613e67565b015462010000900460ff1681146128be5760405162461bcd60e51b81526020600482015260126024820152710aee4dedcce40c2e4e4c2f240d8cadccee8d60731b6044820152606401611378565b8060005b6128cd600283613f40565b8110156129a2578383826128e2600186613f16565b6128ec9190613f16565b8181106128fb576128fb613e67565b90506020020160208101906129109190614054565b63ffffffff1684848381811061292857612928613e67565b905060200201602081019061293d9190614054565b63ffffffff16146129905760405162461bcd60e51b815260206004820152601e60248201527f5061796f7574207461626c65206d7573742062652073796d6d657472696300006044820152606401611378565b8061299a81613e4e565b9150506128c2565b5060ff84166000908152600c602052604081206129be916137b7565b6000805b83811015612aaf5760ff86166000908152600c602052604090208585838181106129ee576129ee613e67565b9050602002016020810190612a039190614054565b8154600181018355600092835260209092206008830401805460079093166004026101000a63ffffffff81810219909416928416029190911790558216858583818110612a5257612a52613e67565b9050602002016020810190612a679190614054565b63ffffffff161115612a9d57848482818110612a8557612a85613e67565b9050602002016020810190612a9a9190614054565b91505b80612aa781613e4e565b9150506129c2565b508060038660ff1660098110612ac757612ac7613e67565b01805463ffffffff9290921663010000000266ffffffff0000001990921691909117905560ff85167f45de612aa03a8fb4a3aad12e4e59f44d050236c91c8b759841fce70ac51b26ce60038260098110612b2357612b23613e67565b015460ff90811690600390891660098110612b4057612b40613e67565b01546040805160ff938416815261010090920490921660208201520160405180910390a25050505050565b600260015403612b8e57604051633ee5aeb560e01b815260040160405180910390fd5b6002600155565b60018055565b6000546001600160a01b03600160481b90910416331461160b5760405163118cdaa760e01b8152336004820152602401611378565b60025460ff161561160b5760405163d93c066560e01b815260040160405180910390fd5b600081815260106020526040902080546001600160a01b0316612c2a57604051635b34156960e11b815260040160405180910390fd5b600381015460ff1615612c5057604051635be00f0f60e11b815260040160405180910390fd5b80546001600160a01b03163314612c7a576040516328a4d61560e01b815260040160405180910390fd5b600301805460ff1916600117905550565b604080516001600160a01b0385811660248301528416604482015260648082018490528251808303909101815260849091019091526020810180516001600160e01b03166323b872dd60e01b179052611bd5908590613439565b60408051610100810182523381526001600160a01b038716602082015290810185905260ff841660608201526080810183905260a081018290524260c082015260e08101600090526000838152600d6020908152604091829020835181546001600160a01b039182166001600160a01b031991821617835592850151600180840180549290931691909416179055918301516002830155606083015160038301805460ff90921660ff19928316179055608084015160048085019190915560a0850151600585015560c0850151600685015560e08501516007850180549194909391909116918490811115612ddc57612ddc6138cb565b021790555050336000908152600f60209081526040822080546001810182559083529082200184905560138054925090612e1583613e4e565b9190505550600060038460ff1660098110612e3257612e32613e67565b6040805160808082018352929093015460ff808216808652610100830482166020808801829052620100008504841688870152630100000090940463ffffffff1660608089019190915285518d8152938c169484019490945293820152908101919091529081018490529091506001600160a01b03871690339085907fcf33e50c18830ab927e92760be7ad70da5db60c0e73e5a3122917de5ecd7e3b09060a00160405180910390a4505050505050565b612eeb6134ed565b6002805460ff191690557f5db9ee0a495bf2e6ff9c91a7834c1ba4fdd244a5e8aa4e537bd38aeae4b073aa335b6040516001600160a01b03909116815260200160405180910390a1565b610d39612b9b565b612f4682613510565b805115611693576000826001600160a01b031682604051612f67919061409e565b600060405180830381855af49150503d8060008114612fa2576040519150601f19603f3d011682016040523d82523d6000602084013e612fa7565b606091505b50509050806110de5760405162461bcd60e51b81526020600482015260136024820152721d5c19dc9859194818d85b1b0819985a5b1959606a1b6044820152606401611378565b600080546001600160a01b03838116600160481b8181027fffffff0000000000000000000000000000000000000000ffffffffffffffffff851617855560405193049190911692909183917f8be0079c531659141344cd1fd0a4f28419497f9722a3daafe3b4186f6b6457e091a35050565b600054600160401b900460ff1661308a57604051631afcd79f60e31b815260040160405180910390fd5b610d398161356a565b600054600160401b900460ff166130bd57604051631afcd79f60e31b815260040160405180910390fd5b61160b613594565b600054600160401b900460ff166130ef57604051631afcd79f60e31b815260040160405180910390fd5b61160b6135be565b600054600160401b900460ff1661160b57604051631afcd79f60e31b815260040160405180910390fd5b613129612bd0565b6002805460ff191660011790557f62e78cea01bee320cd4e420270b5ea74000d11b0c9f74754ebdbfc544b05a258612f183390565b600060038260ff166009811061317657613176613e67565b015460ff16905083811461319d576040516320db826760e01b815260040160405180910390fd5b6000805b60ff81168611156132865786868260ff168181106131c1576131c1613e67565b90506020020160208101906131d69190613886565b60ff1615801590613214575086868260ff168181106131f7576131f7613e67565b905060200201602081019061320c9190613886565b60ff16600114155b15613232576040516320db826760e01b815260040160405180910390fd5b86868260ff1681811061324757613247613e67565b905060200201602081019061325c9190613886565b60ff166001036132745781613270816140ba565b9250505b8061327e816140ba565b9150506131a1565b508360ff168160ff16146132ad57604051633a1533a360e01b815260040160405180910390fd5b60038360ff16600981106132c3576132c3613e67565b015460ff620100009091048116908516106132f157604051633a1533a360e01b815260040160405180910390fd5b505050505050565b848411600061330887876140d9565b60408051841515815260ff8716602082015263ffffffff881681830152606081018a90526080810189905260a0810183905260c0810186905290519192506001600160a01b038a16918b917f92ede6da50dabf90511a925581ae34476f0aa37fca1d6cc940b07efeb045512d919081900360e00190a3505050505050505050565b6000613394876135f4565b9050897f1f81eddf435492637e1be13b10d5f6ee3fc7601159e836c7fe824c27ef1e842388858588866040516133ce9594939291906140f9565b60405180910390a26040805189815260ff89166020820152908101879052606081018690526001600160a01b038a16908b907f4ed4d18db7aad6077f479a7444d0da12f9b365d3efa7c299a2e192aafafd2b4e9060800160405180910390a350505050505050505050565b600080836001600160a01b031683604051613454919061409e565b6000604051808303816000865af19150503d8060008114613491576040519150601f19603f3d011682016040523d82523d6000602084013e613496565b606091505b50915091508115806134c457508051158015906134c45750808060200190518101906134c29190613dd1565b155b15611bd557604051635274afe760e01b81526001600160a01b0385166004820152602401611378565b60025460ff1661160b57604051638dfc202b60e01b815260040160405180910390fd5b806001600160a01b03163b60000361354657604051634c9c8ce360e01b81526001600160a01b0382166004820152602401611378565b7f360894a13ba1a3210667c828492db98dca3e2076cc3735a920a3ca505d382bbc55565b600054600160401b900460ff166127fa57604051631afcd79f60e31b815260040160405180910390fd5b600054600160401b900460ff16612b9557604051631afcd79f60e31b815260040160405180910390fd5b600054600160401b900460ff166135e857604051631afcd79f60e31b815260040160405180910390fd5b6002805460ff19169055565b60608160ff16600003613622575050604080518082019091526005815264382d4c6f7760d81b602082015290565b8160ff16600103613651575050604080518082019091526008815267382d4d656469756d60c01b602082015290565b8160ff1660020361367e5750506040805180820190915260068152650705a90d2ced60d31b602082015290565b8160ff166003036136ab57505060408051808201909152600681526531322d4c6f7760d01b602082015290565b8160ff166004036136db57505060408051808201909152600981526831322d4d656469756d60b81b602082015290565b8160ff16600503613709575050604080518082019091526007815266062645a90d2ced60cb1b602082015290565b8160ff1660060361373657505060408051808201909152600681526531362d4c6f7760d01b602082015290565b8160ff1660070361376657505060408051808201909152600981526831362d4d656469756d60b81b602082015290565b8160ff166008036137945750506040805180820190915260078152660626c5a90d2ced60cb1b602082015290565b50506040805180820190915260078152662ab735b737bbb760c91b602082015290565b508054600082556007016008900490600052602060002090810190610d3991905b808211156137ec57600081556001016137d8565b5090565b60006020828403121561380257600080fd5b5035919050565b80356001600160a01b038116811461382057600080fd5b919050565b60006020828403121561383757600080fd5b6126f082613809565b803560ff8116811461382057600080fd5b60008060006060848603121561386657600080fd5b8335925061387660208501613840565b9150604084013590509250925092565b60006020828403121561389857600080fd5b6126f082613840565b600080604083850312156138b457600080fd5b6138bd83613809565b946020939093013593505050565b634e487b7160e01b600052602160045260246000fd5b600581106138ff57634e487b7160e01b600052602160045260246000fd5b9052565b60006101008201905060018060a01b03808451168352806020850151166020840152506040830151604083015260ff60608401511660608301526080830151608083015260a083015160a083015260c083015160c083015260e083015161396d60e08401826138e1565b5092915050565b634e487b7160e01b600052604160045260246000fd5b6000806040838503121561399d57600080fd5b6139a683613809565b9150602083013567ffffffffffffffff808211156139c357600080fd5b818501915085601f8301126139d757600080fd5b8135818111156139e9576139e9613974565b604051601f8201601f19908116603f01168101908382118183101715613a1157613a11613974565b81604052828152886020848701011115613a2a57600080fd5b8260208601602083013760006020848301015280955050505050509250929050565b600080600060608486031215613a6157600080fd5b613a6a84613809565b95602085013595506040909401359392505050565b6020808252825182820181905260009190848201906040850190845b81811015613ab757835183529284019291840191600101613a9b565b50909695505050505050565b6020808252825182820181905260009190848201906040850190845b81811015613ab757835163ffffffff1683529284019291840191600101613adf565b8015158114610d3957600080fd5b60008060408385031215613b2257600080fd5b613b2b83613809565b91506020830135613b3b81613b01565b809150509250929050565b60008060408385031215613b5957600080fd5b6138bd83613840565b600080600060608486031215613b7757600080fd5b8335925061387660208501613809565b60008083601f840112613b9957600080fd5b50813567ffffffffffffffff811115613bb157600080fd5b6020830191508360208260051b8501011115613bcc57600080fd5b9250929050565b600080600080600060808688031215613beb57600080fd5b8535945060208601359350604086013567ffffffffffffffff811115613c1057600080fd5b613c1c88828901613b87565b9094509250613c2f905060608701613840565b90509295509295909350565b6001600160a01b038981168252881660208201526040810187905260ff861660608201526080810185905260a0810184905260c081018390526101008101613c8660e08301846138e1565b9998505050505050505050565b60008060408385031215613ca657600080fd5b82359150613cb660208401613840565b90509250929050565b600080600060408486031215613cd457600080fd5b613cdd84613840565b9250602084013567ffffffffffffffff811115613cf957600080fd5b613d0586828701613b87565b9497909650939450505050565b634e487b7160e01b600052601160045260246000fd5b808201808211156126f3576126f3613d12565b600081518084526020808501945080840160005b83811015613d6e57815160ff1687529582019590820190600101613d4f565b509495945050505050565b600061010060018060a01b038b16835289602084015288604084015260ff8816606084015260ff871660808401528060a0840152613db981840187613d3b565b60c0840195909552505060e001529695505050505050565b600060208284031215613de357600080fd5b815161181a81613b01565b600061012060018060a01b038c1683528a602084015289604084015288606084015260ff8816608084015260ff871660a08401528060c0840152613e3481840187613d3b565b60e084019590955250506101000152979650505050505050565b600060018201613e6057613e60613d12565b5060010190565b634e487b7160e01b600052603260045260246000fd5b600060208284031215613e8f57600080fd5b5051919050565b60008060008060008060c08789031215613eaf57600080fd5b865195506020870151945060408701519350606087015192506080870151915060a087015190509295509295509295565b60008060008060808587031215613ef657600080fd5b505082516020840151604085015160609095015191969095509092509050565b818103818111156126f3576126f3613d12565b80820281158282048414176126f3576126f3613d12565b600082613f5d57634e487b7160e01b600052601260045260246000fd5b500490565b8183526000602080850194508260005b85811015613d6e5760ff613f8583613840565b1687529582019590820190600101613f72565b600061012060018060a01b038d1683528b60208401528a604084015289606084015260ff8916608084015260ff881660a08401528060c0840152613fdf8184018789613f62565b60e08401959095525050610100015298975050505050505050565b600061010060018060a01b038c1683528a602084015289604084015260ff8916606084015260ff881660808401528060a084015261403b8184018789613f62565b60c0840195909552505060e00152979650505050505050565b60006020828403121561406657600080fd5b813563ffffffff8116811461181a57600080fd5b60005b8381101561409557818101518382015260200161407d565b50506000910152565b600082516140b081846020870161407a565b9190910192915050565b600060ff821660ff81036140d0576140d0613d12565b60010192915050565b818103600083128015838313168383128216171561396d5761396d613d12565b60ff86168152608060208201526000614116608083018688613f62565b60ff851660408401528281036060840152835180825261413d81602084016020880161407a565b601f01601f19160160200197965050505050505056fea2646970667358221220a77fb63bfa6953705403d73c95faf77d4c8f152eab86a3e8a57bc83aa8201d7b64736f6c63430008140033",
  "linkReferences": {},
  "deployedLinkReferences": {}
}