{
  "_format": "hh-sol-artifact-1",
  "contractName": "BuxBoosterGame",
  "sourceName": "contracts/BuxBoosterGame.sol",
  "abi": [
    {
      "inputs": [],
      "stateMutability": "nonpayable",
      "type": "constructor"
    },
    {
      "inputs": [],
      "name": "BetAlreadySettled",
      "type": "error"
    },
    {
      "inputs": [],
      "name": "BetAmountTooHigh",
      "type": "error"
    },
    {
      "inputs": [],
      "name": "BetAmountTooLow",
      "type": "error"
    },
    {
      "inputs": [],
      "name": "BetExpiredError",
      "type": "error"
    },
    {
      "inputs": [],
      "name": "BetNotExpired",
      "type": "error"
    },
    {
      "inputs": [],
      "name": "BetNotFound",
      "type": "error"
    },
    {
      "inputs": [],
      "name": "CommitmentAlreadyUsed",
      "type": "error"
    },
    {
      "inputs": [],
      "name": "CommitmentNotFound",
      "type": "error"
    },
    {
      "inputs": [],
      "name": "CommitmentWrongNonce",
      "type": "error"
    },
    {
      "inputs": [],
      "name": "CommitmentWrongPlayer",
      "type": "error"
    },
    {
      "inputs": [
        {
          "internalType": "address",
          "name": "implementation",
          "type": "address"
        }
      ],
      "name": "ERC1967InvalidImplementation",
      "type": "error"
    },
    {
      "inputs": [],
      "name": "EnforcedPause",
      "type": "error"
    },
    {
      "inputs": [],
      "name": "ExpectedPause",
      "type": "error"
    },
    {
      "inputs": [],
      "name": "InsufficientHouseBalance",
      "type": "error"
    },
    {
      "inputs": [],
      "name": "InvalidDifficulty",
      "type": "error"
    },
    {
      "inputs": [],
      "name": "InvalidInitialization",
      "type": "error"
    },
    {
      "inputs": [],
      "name": "InvalidPredictions",
      "type": "error"
    },
    {
      "inputs": [],
      "name": "InvalidServerSeed",
      "type": "error"
    },
    {
      "inputs": [],
      "name": "NotInitializing",
      "type": "error"
    },
    {
      "inputs": [
        {
          "internalType": "address",
          "name": "owner",
          "type": "address"
        }
      ],
      "name": "OwnableInvalidOwner",
      "type": "error"
    },
    {
      "inputs": [
        {
          "internalType": "address",
          "name": "account",
          "type": "address"
        }
      ],
      "name": "OwnableUnauthorizedAccount",
      "type": "error"
    },
    {
      "inputs": [],
      "name": "ReentrancyGuardReentrantCall",
      "type": "error"
    },
    {
      "inputs": [
        {
          "internalType": "address",
          "name": "token",
          "type": "address"
        }
      ],
      "name": "SafeERC20FailedOperation",
      "type": "error"
    },
    {
      "inputs": [],
      "name": "TokenNotEnabled",
      "type": "error"
    },
    {
      "inputs": [],
      "name": "UUPSUnauthorizedCallContext",
      "type": "error"
    },
    {
      "inputs": [
        {
          "internalType": "bytes32",
          "name": "slot",
          "type": "bytes32"
        }
      ],
      "name": "UUPSUnsupportedProxiableUUID",
      "type": "error"
    },
    {
      "inputs": [],
      "name": "UnauthorizedSettler",
      "type": "error"
    },
    {
      "anonymous": false,
      "inputs": [
        {
          "indexed": true,
          "internalType": "bytes32",
          "name": "commitmentHash",
          "type": "bytes32"
        },
        {
          "indexed": true,
          "internalType": "address",
          "name": "token",
          "type": "address"
        },
        {
          "indexed": false,
          "internalType": "uint256",
          "name": "amount",
          "type": "uint256"
        },
        {
          "indexed": false,
          "internalType": "int8",
          "name": "difficulty",
          "type": "int8"
        },
        {
          "indexed": false,
          "internalType": "uint8[]",
          "name": "predictions",
          "type": "uint8[]"
        },
        {
          "indexed": false,
          "internalType": "uint256",
          "name": "nonce",
          "type": "uint256"
        },
        {
          "indexed": false,
          "internalType": "uint256",
          "name": "timestamp",
          "type": "uint256"
        }
      ],
      "name": "BetDetails",
      "type": "event"
    },
    {
      "anonymous": false,
      "inputs": [
        {
          "indexed": true,
          "internalType": "bytes32",
          "name": "betId",
          "type": "bytes32"
        },
        {
          "indexed": true,
          "internalType": "address",
          "name": "player",
          "type": "address"
        }
      ],
      "name": "BetExpired",
      "type": "event"
    },
    {
      "anonymous": false,
      "inputs": [
        {
          "indexed": true,
          "internalType": "bytes32",
          "name": "commitmentHash",
          "type": "bytes32"
        },
        {
          "indexed": true,
          "internalType": "address",
          "name": "player",
          "type": "address"
        },
        {
          "indexed": true,
          "internalType": "address",
          "name": "token",
          "type": "address"
        },
        {
          "indexed": false,
          "internalType": "uint256",
          "name": "amount",
          "type": "uint256"
        },
        {
          "indexed": false,
          "internalType": "int8",
          "name": "difficulty",
          "type": "int8"
        },
        {
          "indexed": false,
          "internalType": "uint8[]",
          "name": "predictions",
          "type": "uint8[]"
        },
        {
          "indexed": false,
          "internalType": "uint256",
          "name": "nonce",
          "type": "uint256"
        }
      ],
      "name": "BetPlaced",
      "type": "event"
    },
    {
      "anonymous": false,
      "inputs": [
        {
          "indexed": true,
          "internalType": "bytes32",
          "name": "commitmentHash",
          "type": "bytes32"
        },
        {
          "indexed": true,
          "internalType": "address",
          "name": "player",
          "type": "address"
        },
        {
          "indexed": false,
          "internalType": "bool",
          "name": "won",
          "type": "bool"
        },
        {
          "indexed": false,
          "internalType": "uint8[]",
          "name": "results",
          "type": "uint8[]"
        },
        {
          "indexed": false,
          "internalType": "uint256",
          "name": "payout",
          "type": "uint256"
        },
        {
          "indexed": false,
          "internalType": "bytes32",
          "name": "serverSeed",
          "type": "bytes32"
        }
      ],
      "name": "BetSettled",
      "type": "event"
    },
    {
      "anonymous": false,
      "inputs": [
        {
          "indexed": true,
          "internalType": "bytes32",
          "name": "commitmentHash",
          "type": "bytes32"
        },
        {
          "indexed": true,
          "internalType": "address",
          "name": "player",
          "type": "address"
        },
        {
          "indexed": false,
          "internalType": "uint256",
          "name": "nonce",
          "type": "uint256"
        }
      ],
      "name": "CommitmentSubmitted",
      "type": "event"
    },
    {
      "anonymous": false,
      "inputs": [
        {
          "indexed": true,
          "internalType": "address",
          "name": "token",
          "type": "address"
        },
        {
          "indexed": false,
          "internalType": "uint256",
          "name": "amount",
          "type": "uint256"
        }
      ],
      "name": "HouseDeposit",
      "type": "event"
    },
    {
      "anonymous": false,
      "inputs": [
        {
          "indexed": true,
          "internalType": "address",
          "name": "token",
          "type": "address"
        },
        {
          "indexed": false,
          "internalType": "uint256",
          "name": "amount",
          "type": "uint256"
        }
      ],
      "name": "HouseWithdraw",
      "type": "event"
    },
    {
      "anonymous": false,
      "inputs": [
        {
          "indexed": false,
          "internalType": "uint64",
          "name": "version",
          "type": "uint64"
        }
      ],
      "name": "Initialized",
      "type": "event"
    },
    {
      "anonymous": false,
      "inputs": [
        {
          "indexed": true,
          "internalType": "address",
          "name": "previousOwner",
          "type": "address"
        },
        {
          "indexed": true,
          "internalType": "address",
          "name": "newOwner",
          "type": "address"
        }
      ],
      "name": "OwnershipTransferred",
      "type": "event"
    },
    {
      "anonymous": false,
      "inputs": [
        {
          "indexed": false,
          "internalType": "address",
          "name": "account",
          "type": "address"
        }
      ],
      "name": "Paused",
      "type": "event"
    },
    {
      "anonymous": false,
      "inputs": [
        {
          "indexed": true,
          "internalType": "address",
          "name": "token",
          "type": "address"
        },
        {
          "indexed": false,
          "internalType": "bool",
          "name": "enabled",
          "type": "bool"
        }
      ],
      "name": "TokenConfigured",
      "type": "event"
    },
    {
      "anonymous": false,
      "inputs": [
        {
          "indexed": false,
          "internalType": "address",
          "name": "account",
          "type": "address"
        }
      ],
      "name": "Unpaused",
      "type": "event"
    },
    {
      "inputs": [],
      "name": "BET_EXPIRY",
      "outputs": [
        {
          "internalType": "uint256",
          "name": "",
          "type": "uint256"
        }
      ],
      "stateMutability": "view",
      "type": "function"
    },
    {
      "inputs": [
        {
          "internalType": "uint256",
          "name": "",
          "type": "uint256"
        }
      ],
      "name": "FLIP_COUNTS",
      "outputs": [
        {
          "internalType": "uint8",
          "name": "",
          "type": "uint8"
        }
      ],
      "stateMutability": "view",
      "type": "function"
    },
    {
      "inputs": [
        {
          "internalType": "uint256",
          "name": "",
          "type": "uint256"
        }
      ],
      "name": "GAME_MODES",
      "outputs": [
        {
          "internalType": "uint8",
          "name": "",
          "type": "uint8"
        }
      ],
      "stateMutability": "view",
      "type": "function"
    },
    {
      "inputs": [],
      "name": "MAX_BET_BPS",
      "outputs": [
        {
          "internalType": "uint256",
          "name": "",
          "type": "uint256"
        }
      ],
      "stateMutability": "view",
      "type": "function"
    },
    {
      "inputs": [],
      "name": "MIN_BET",
      "outputs": [
        {
          "internalType": "uint256",
          "name": "",
          "type": "uint256"
        }
      ],
      "stateMutability": "view",
      "type": "function"
    },
    {
      "inputs": [
        {
          "internalType": "uint256",
          "name": "",
          "type": "uint256"
        }
      ],
      "name": "MULTIPLIERS",
      "outputs": [
        {
          "internalType": "uint32",
          "name": "",
          "type": "uint32"
        }
      ],
      "stateMutability": "view",
      "type": "function"
    },
    {
      "inputs": [
        {
          "internalType": "bytes32",
          "name": "",
          "type": "bytes32"
        }
      ],
      "name": "bets",
      "outputs": [
        {
          "internalType": "address",
          "name": "player",
          "type": "address"
        },
        {
          "internalType": "address",
          "name": "token",
          "type": "address"
        },
        {
          "internalType": "uint256",
          "name": "amount",
          "type": "uint256"
        },
        {
          "internalType": "int8",
          "name": "difficulty",
          "type": "int8"
        },
        {
          "internalType": "bytes32",
          "name": "commitmentHash",
          "type": "bytes32"
        },
        {
          "internalType": "uint256",
          "name": "nonce",
          "type": "uint256"
        },
        {
          "internalType": "uint256",
          "name": "timestamp",
          "type": "uint256"
        },
        {
          "internalType": "enum BuxBoosterGame.BetStatus",
          "name": "status",
          "type": "uint8"
        }
      ],
      "stateMutability": "view",
      "type": "function"
    },
    {
      "inputs": [
        {
          "internalType": "uint256",
          "name": "amount",
          "type": "uint256"
        },
        {
          "internalType": "int8",
          "name": "difficulty",
          "type": "int8"
        }
      ],
      "name": "calculatePotentialPayout",
      "outputs": [
        {
          "internalType": "uint256",
          "name": "",
          "type": "uint256"
        }
      ],
      "stateMutability": "view",
      "type": "function"
    },
    {
      "inputs": [
        {
          "internalType": "bytes32",
          "name": "",
          "type": "bytes32"
        }
      ],
      "name": "commitments",
      "outputs": [
        {
          "internalType": "address",
          "name": "player",
          "type": "address"
        },
        {
          "internalType": "uint256",
          "name": "nonce",
          "type": "uint256"
        },
        {
          "internalType": "uint256",
          "name": "timestamp",
          "type": "uint256"
        },
        {
          "internalType": "bool",
          "name": "used",
          "type": "bool"
        },
        {
          "internalType": "bytes32",
          "name": "serverSeed",
          "type": "bytes32"
        }
      ],
      "stateMutability": "view",
      "type": "function"
    },
    {
      "inputs": [
        {
          "internalType": "address",
          "name": "token",
          "type": "address"
        },
        {
          "internalType": "bool",
          "name": "enabled",
          "type": "bool"
        }
      ],
      "name": "configureToken",
      "outputs": [],
      "stateMutability": "nonpayable",
      "type": "function"
    },
    {
      "inputs": [
        {
          "internalType": "address",
          "name": "token",
          "type": "address"
        },
        {
          "internalType": "uint256",
          "name": "amount",
          "type": "uint256"
        }
      ],
      "name": "depositHouseBalance",
      "outputs": [],
      "stateMutability": "nonpayable",
      "type": "function"
    },
    {
      "inputs": [
        {
          "internalType": "bytes32",
          "name": "betId",
          "type": "bytes32"
        }
      ],
      "name": "getBet",
      "outputs": [
        {
          "internalType": "address",
          "name": "player",
          "type": "address"
        },
        {
          "internalType": "address",
          "name": "token",
          "type": "address"
        },
        {
          "internalType": "uint256",
          "name": "amount",
          "type": "uint256"
        },
        {
          "internalType": "int8",
          "name": "difficulty",
          "type": "int8"
        },
        {
          "internalType": "uint8[]",
          "name": "predictions",
          "type": "uint8[]"
        },
        {
          "internalType": "bytes32",
          "name": "commitmentHash",
          "type": "bytes32"
        },
        {
          "internalType": "uint256",
          "name": "nonce",
          "type": "uint256"
        },
        {
          "internalType": "uint256",
          "name": "timestamp",
          "type": "uint256"
        },
        {
          "internalType": "enum BuxBoosterGame.BetStatus",
          "name": "status",
          "type": "uint8"
        }
      ],
      "stateMutability": "view",
      "type": "function"
    },
    {
      "inputs": [
        {
          "internalType": "bytes32",
          "name": "commitmentHash",
          "type": "bytes32"
        }
      ],
      "name": "getCommitment",
      "outputs": [
        {
          "internalType": "address",
          "name": "player",
          "type": "address"
        },
        {
          "internalType": "uint256",
          "name": "nonce",
          "type": "uint256"
        },
        {
          "internalType": "uint256",
          "name": "timestamp",
          "type": "uint256"
        },
        {
          "internalType": "bool",
          "name": "used",
          "type": "bool"
        },
        {
          "internalType": "bytes32",
          "name": "serverSeed",
          "type": "bytes32"
        }
      ],
      "stateMutability": "view",
      "type": "function"
    },
    {
      "inputs": [
        {
          "internalType": "address",
          "name": "player",
          "type": "address"
        },
        {
          "internalType": "uint256",
          "name": "nonce",
          "type": "uint256"
        }
      ],
      "name": "getCommitmentByNonce",
      "outputs": [
        {
          "internalType": "bytes32",
          "name": "commitmentHash",
          "type": "bytes32"
        },
        {
          "internalType": "uint256",
          "name": "commitmentTimestamp",
          "type": "uint256"
        },
        {
          "internalType": "bool",
          "name": "used",
          "type": "bool"
        },
        {
          "internalType": "bytes32",
          "name": "serverSeed",
          "type": "bytes32"
        }
      ],
      "stateMutability": "view",
      "type": "function"
    },
    {
      "inputs": [
        {
          "internalType": "address",
          "name": "token",
          "type": "address"
        },
        {
          "internalType": "int8",
          "name": "difficulty",
          "type": "int8"
        }
      ],
      "name": "getMaxBet",
      "outputs": [
        {
          "internalType": "uint256",
          "name": "",
          "type": "uint256"
        }
      ],
      "stateMutability": "view",
      "type": "function"
    },
    {
      "inputs": [
        {
          "internalType": "address",
          "name": "player",
          "type": "address"
        },
        {
          "internalType": "uint256",
          "name": "offset",
          "type": "uint256"
        },
        {
          "internalType": "uint256",
          "name": "limit",
          "type": "uint256"
        }
      ],
      "name": "getPlayerBetHistory",
      "outputs": [
        {
          "internalType": "bytes32[]",
          "name": "",
          "type": "bytes32[]"
        }
      ],
      "stateMutability": "view",
      "type": "function"
    },
    {
      "inputs": [
        {
          "internalType": "address",
          "name": "player",
          "type": "address"
        }
      ],
      "name": "getPlayerCurrentCommitment",
      "outputs": [
        {
          "internalType": "bytes32",
          "name": "commitmentHash",
          "type": "bytes32"
        },
        {
          "internalType": "uint256",
          "name": "nonce",
          "type": "uint256"
        },
        {
          "internalType": "uint256",
          "name": "timestamp",
          "type": "uint256"
        },
        {
          "internalType": "bool",
          "name": "used",
          "type": "bool"
        }
      ],
      "stateMutability": "view",
      "type": "function"
    },
    {
      "inputs": [
        {
          "internalType": "address",
          "name": "player",
          "type": "address"
        }
      ],
      "name": "getPlayerStats",
      "outputs": [
        {
          "internalType": "uint256",
          "name": "totalBets",
          "type": "uint256"
        },
        {
          "internalType": "uint256",
          "name": "totalStaked",
          "type": "uint256"
        },
        {
          "internalType": "int256",
          "name": "overallProfitLoss",
          "type": "int256"
        },
        {
          "internalType": "uint256[9]",
          "name": "betsPerDifficulty",
          "type": "uint256[9]"
        },
        {
          "internalType": "int256[9]",
          "name": "profitLossPerDifficulty",
          "type": "int256[9]"
        }
      ],
      "stateMutability": "view",
      "type": "function"
    },
    {
      "inputs": [],
      "name": "initialize",
      "outputs": [],
      "stateMutability": "nonpayable",
      "type": "function"
    },
    {
      "inputs": [],
      "name": "initializeV2",
      "outputs": [],
      "stateMutability": "nonpayable",
      "type": "function"
    },
    {
      "inputs": [],
      "name": "initializeV3",
      "outputs": [],
      "stateMutability": "nonpayable",
      "type": "function"
    },
    {
      "inputs": [],
      "name": "owner",
      "outputs": [
        {
          "internalType": "address",
          "name": "",
          "type": "address"
        }
      ],
      "stateMutability": "view",
      "type": "function"
    },
    {
      "inputs": [],
      "name": "paused",
      "outputs": [
        {
          "internalType": "bool",
          "name": "",
          "type": "bool"
        }
      ],
      "stateMutability": "view",
      "type": "function"
    },
    {
      "inputs": [
        {
          "internalType": "address",
          "name": "token",
          "type": "address"
        },
        {
          "internalType": "uint256",
          "name": "amount",
          "type": "uint256"
        },
        {
          "internalType": "int8",
          "name": "difficulty",
          "type": "int8"
        },
        {
          "internalType": "uint8[]",
          "name": "predictions",
          "type": "uint8[]"
        },
        {
          "internalType": "bytes32",
          "name": "commitmentHash",
          "type": "bytes32"
        }
      ],
      "name": "placeBet",
      "outputs": [],
      "stateMutability": "nonpayable",
      "type": "function"
    },
    {
      "inputs": [
        {
          "internalType": "address",
          "name": "",
          "type": "address"
        },
        {
          "internalType": "uint256",
          "name": "",
          "type": "uint256"
        }
      ],
      "name": "playerBetHistory",
      "outputs": [
        {
          "internalType": "bytes32",
          "name": "",
          "type": "bytes32"
        }
      ],
      "stateMutability": "view",
      "type": "function"
    },
    {
      "inputs": [
        {
          "internalType": "address",
          "name": "",
          "type": "address"
        },
        {
          "internalType": "uint256",
          "name": "",
          "type": "uint256"
        }
      ],
      "name": "playerCommitments",
      "outputs": [
        {
          "internalType": "bytes32",
          "name": "",
          "type": "bytes32"
        }
      ],
      "stateMutability": "view",
      "type": "function"
    },
    {
      "inputs": [
        {
          "internalType": "address",
          "name": "",
          "type": "address"
        }
      ],
      "name": "playerNonces",
      "outputs": [
        {
          "internalType": "uint256",
          "name": "",
          "type": "uint256"
        }
      ],
      "stateMutability": "view",
      "type": "function"
    },
    {
      "inputs": [
        {
          "internalType": "address",
          "name": "",
          "type": "address"
        }
      ],
      "name": "playerStats",
      "outputs": [
        {
          "internalType": "uint256",
          "name": "totalBets",
          "type": "uint256"
        },
        {
          "internalType": "uint256",
          "name": "totalStaked",
          "type": "uint256"
        },
        {
          "internalType": "int256",
          "name": "overallProfitLoss",
          "type": "int256"
        }
      ],
      "stateMutability": "view",
      "type": "function"
    },
    {
      "inputs": [],
      "name": "proxiableUUID",
      "outputs": [
        {
          "internalType": "bytes32",
          "name": "",
          "type": "bytes32"
        }
      ],
      "stateMutability": "view",
      "type": "function"
    },
    {
      "inputs": [
        {
          "internalType": "bytes32",
          "name": "betId",
          "type": "bytes32"
        }
      ],
      "name": "refundExpiredBet",
      "outputs": [],
      "stateMutability": "nonpayable",
      "type": "function"
    },
    {
      "inputs": [],
      "name": "renounceOwnership",
      "outputs": [],
      "stateMutability": "nonpayable",
      "type": "function"
    },
    {
      "inputs": [
        {
          "internalType": "bool",
          "name": "_paused",
          "type": "bool"
        }
      ],
      "name": "setPaused",
      "outputs": [],
      "stateMutability": "nonpayable",
      "type": "function"
    },
    {
      "inputs": [
        {
          "internalType": "address",
          "name": "_settler",
          "type": "address"
        }
      ],
      "name": "setSettler",
      "outputs": [],
      "stateMutability": "nonpayable",
      "type": "function"
    },
    {
      "inputs": [
        {
          "internalType": "bytes32",
          "name": "commitmentHash",
          "type": "bytes32"
        },
        {
          "internalType": "bytes32",
          "name": "serverSeed",
          "type": "bytes32"
        },
        {
          "internalType": "uint8[]",
          "name": "results",
          "type": "uint8[]"
        },
        {
          "internalType": "bool",
          "name": "won",
          "type": "bool"
        }
      ],
      "name": "settleBet",
      "outputs": [
        {
          "internalType": "uint256",
          "name": "payout",
          "type": "uint256"
        }
      ],
      "stateMutability": "nonpayable",
      "type": "function"
    },
    {
      "inputs": [],
      "name": "settler",
      "outputs": [
        {
          "internalType": "address",
          "name": "",
          "type": "address"
        }
      ],
      "stateMutability": "view",
      "type": "function"
    },
    {
      "inputs": [
        {
          "internalType": "bytes32",
          "name": "commitmentHash",
          "type": "bytes32"
        },
        {
          "internalType": "address",
          "name": "player",
          "type": "address"
        },
        {
          "internalType": "uint256",
          "name": "nonce",
          "type": "uint256"
        }
      ],
      "name": "submitCommitment",
      "outputs": [],
      "stateMutability": "nonpayable",
      "type": "function"
    },
    {
      "inputs": [
        {
          "internalType": "address",
          "name": "",
          "type": "address"
        }
      ],
      "name": "tokenConfigs",
      "outputs": [
        {
          "internalType": "bool",
          "name": "enabled",
          "type": "bool"
        },
        {
          "internalType": "uint256",
          "name": "houseBalance",
          "type": "uint256"
        }
      ],
      "stateMutability": "view",
      "type": "function"
    },
    {
      "inputs": [],
      "name": "totalBetsPlaced",
      "outputs": [
        {
          "internalType": "uint256",
          "name": "",
          "type": "uint256"
        }
      ],
      "stateMutability": "view",
      "type": "function"
    },
    {
      "inputs": [],
      "name": "totalBetsSettled",
      "outputs": [
        {
          "internalType": "uint256",
          "name": "",
          "type": "uint256"
        }
      ],
      "stateMutability": "view",
      "type": "function"
    },
    {
      "inputs": [
        {
          "internalType": "address",
          "name": "newOwner",
          "type": "address"
        }
      ],
      "name": "transferOwnership",
      "outputs": [],
      "stateMutability": "nonpayable",
      "type": "function"
    },
    {
      "inputs": [
        {
          "internalType": "address",
          "name": "newImplementation",
          "type": "address"
        },
        {
          "internalType": "bytes",
          "name": "data",
          "type": "bytes"
        }
      ],
      "name": "upgradeToAndCall",
      "outputs": [],
      "stateMutability": "payable",
      "type": "function"
    },
    {
      "inputs": [
        {
          "internalType": "address",
          "name": "token",
          "type": "address"
        },
        {
          "internalType": "uint256",
          "name": "amount",
          "type": "uint256"
        }
      ],
      "name": "withdrawHouseBalance",
      "outputs": [],
      "stateMutability": "nonpayable",
      "type": "function"
    }
  ],
  "bytecode": "0x60a0604052306080523480156200001557600080fd5b506200002062000026565b620000bd565b60005468010000000000000000900460ff1615620000575760405163f92ee8a960e01b815260040160405180910390fd5b6000546001600160401b0390811614620000bb57600080546001600160401b0319166001600160401b039081179091556040519081527fc7f505b2f371ae2175ee4913f4499e1f2633a7b5936321eed1cdaeb6115181d29060200160405180910390a15b565b6080516136a7620000e060003960008181610e1a0152610ff101526136a76000f3fe6080604052600436106102515760003560e01c80636540742f116101395780639af267fe116100b6578063c902c3ae1161007a578063c902c3ae14610831578063cacc8c50146108b3578063cdafbbb6146108d3578063f2fde38b1461092a578063f5fb72411461094a578063f95aed8b1461096a57600080fd5b80639af267fe14610787578063ab221a76146107a7578063bdb454b4146107c7578063c029b1f0146107dc578063c8442e091461081157600080fd5b80637d76124d116100fd5780637d76124d1461067c5780638129fc1c146106c2578063839df945146106d75780638d53255c1461072e5780638da5cb5b1461074e57600080fd5b80636540742f1461057257806368fca6131461058e57806369abf10b146105bb578063715018a6146105db5780637795820c146105f057600080fd5b806337e8c09e116101d25780634f1ef286116101965780634f1ef286146104c15780634f2ab8ae146104d45780634fd66eae146104f457806352d1902d146105255780635c975abb1461053a5780635cd8a76b1461055d57600080fd5b806337e8c09e1461040f57806338e454b114610444578063442e9d5614610459578063444074671461048b5780634749d25b146104ab57600080fd5b806319ead6fa1161021957806319ead6fa146102f75780631b69dc5f146103245780632155ce651461037557806328bb1ee81461039557806336b44233146103cd57600080fd5b806302581cde1461025657806304fc9d7c1461027857806306d775b9146102a157806307f19eba146102b757806316c38b3c146102d7575b600080fd5b34801561026257600080fd5b5061027661027136600461288f565b61098a565b005b34801561028457600080fd5b5061028e600f5481565b6040519081526020015b60405180910390f35b3480156102ad57600080fd5b5061028e60105481565b3480156102c357600080fd5b506102766102d23660046128c4565b610a99565b3480156102e357600080fd5b506102766102f23660046128ed565b610ac3565b34801561030357600080fd5b5061028e6103123660046128c4565b60096020526000908152604090205481565b34801561033057600080fd5b5061035e61033f3660046128c4565b6007602052600090815260409020805460019091015460ff9091169082565b604080519215158352602083019190915201610298565b34801561038157600080fd5b50610276610390366004612968565b610ae4565b3480156103a157600080fd5b5061028e6103b03660046129df565b600d60209081526000928352604080842090915290825290205481565b3480156103d957600080fd5b506103ed6103e83660046128c4565b610b3f565b6040805194855260208501939093529183015215156060820152608001610298565b34801561041b57600080fd5b5061042f61042a36600461288f565b610bb0565b60405161029899989796959493929190612a41565b34801561045057600080fd5b50610276610ca9565b34801561046557600080fd5b5061047961047436600461288f565b610d56565b60405160ff9091168152602001610298565b34801561049757600080fd5b506102766104a63660046129df565b610d80565b3480156104b757600080fd5b5061028e610e1081565b6102766104cf366004612af5565b610e10565b3480156104e057600080fd5b5061028e6104ef366004612bb7565b610e70565b34801561050057600080fd5b5061051461050f3660046128c4565b610f23565b604051610298959493929190612be3565b34801561053157600080fd5b5061028e610fe4565b34801561054657600080fd5b5060025460ff166040519015158152602001610298565b34801561056957600080fd5b50610276611054565b34801561057e57600080fd5b5061028e670de0b6b3a764000081565b34801561059a57600080fd5b506105ae6105a9366004612c58565b611155565b6040516102989190612c8b565b3480156105c757600080fd5b506102766105d6366004612ccf565b61126a565b3480156105e757600080fd5b506102766112ca565b3480156105fc57600080fd5b5061064861060b36600461288f565b6000908152600c6020526040902080546001820154600283015460038401546004909401546001600160a01b03909316949193909260ff90911691565b604080516001600160a01b03909616865260208601949094529284019190915215156060830152608082015260a001610298565b34801561068857600080fd5b5061069c6106973660046129df565b6112de565b604080519485526020850193909352901515918301919091526060820152608001610298565b3480156106ce57600080fd5b5061027661134d565b3480156106e357600080fd5b506106486106f236600461288f565b600c60205260009081526040902080546001820154600283015460038401546004909401546001600160a01b03909316939192909160ff169085565b34801561073a57600080fd5b50610276610749366004612d06565b61145b565b34801561075a57600080fd5b50600054600160481b90046001600160a01b03165b6040516001600160a01b039091168152602001610298565b34801561079357600080fd5b5061028e6107a23660046129df565b61158a565b3480156107b357600080fd5b50600e5461076f906001600160a01b031681565b3480156107d357600080fd5b5061028e600a81565b3480156107e857600080fd5b506107fc6107f736600461288f565b6115bb565b60405163ffffffff9091168152602001610298565b34801561081d57600080fd5b5061047961082c36600461288f565b6115eb565b34801561083d57600080fd5b5061089f61084c36600461288f565b60086020819052600091825260408220805460018201546002830154600384015460058501546006860154600787015496909701546001600160a01b0395861698949095169692959190930b9360ff1688565b604051610298989796959493929190612d3b565b3480156108bf57600080fd5b5061028e6108ce366004612d94565b6115fb565b3480156108df57600080fd5b5061090f6108ee3660046128c4565b600b6020526000908152604090208054600182015460029092015490919083565b60408051938452602084019290925290820152606001610298565b34801561093657600080fd5b506102766109453660046128c4565b61167b565b34801561095657600080fd5b506102766109653660046129df565b6116bb565b34801561097657600080fd5b5061028e610985366004612dbe565b6117af565b600081815260086020526040902080546001600160a01b03166109c05760405163469bfa9160e01b815260040160405180910390fd5b6000600882015460ff1660038111156109db576109db612a09565b146109f9576040516305d09e5f60e01b815260040160405180910390fd5b610e108160070154610a0b9190612e3f565b4211610a2a576040516307a899a160e01b815260040160405180910390fd5b60088101805460ff19166003179055805460028201546001830154610a5d926001600160a01b0391821692911690611a06565b80546040516001600160a01b039091169083907eab3a6bca802e881c9a8e0d6e2a7f4859d60fea30a014c5ab08eb6771160eae90600090a35050565b610aa1611a6a565b600e80546001600160a01b0319166001600160a01b0392909216919091179055565b610acb611a6a565b8015610adc57610ad9611a9f565b50565b610ad9611af9565b610aec611b32565b610af4611b5c565b610afd81611b80565b610b0a8686868686611c17565b50610b206001600160a01b038716333088611e5b565b610b2e868686868686611e94565b610b3760018055565b505050505050565b6001600160a01b038116600090815260096020908152604080832054600d835281842081855290925282205491808315610b9f575050506000818152600c602052604090206001810154600282015460039092015490919060ff16610ba9565b5060009250829050805b9193509193565b60008181526008602081815260408084208054600182015460028301546003840154600585015460068601546007870154998701546004880180548a51818d0281018d01909b52808b528d9c8d9c8d9c60609c8e9c8d9c8d9c8d9c939b6001600160a01b039384169b93909216999098938d0b97939691959294919360ff90911692879190830182828015610c8257602002820191906000526020600020906000905b825461010083900a900460ff16815260206001928301818104948501949093039092029101808411610c535790505b50505050509450995099509950995099509950995099509950509193959799909294969850565b600054600390600160401b900460ff1680610cd3575060005467ffffffffffffffff808316911610155b15610cf15760405163f92ee8a960e01b815260040160405180910390fd5b6000805468ffffffffffffffffff191667ffffffffffffffff8316908117600160401b1760ff60401b19169091556040519081527fc7f505b2f371ae2175ee4913f4499e1f2633a7b5936321eed1cdaeb6115181d2906020015b60405180910390a150565b60058160098110610d6657600080fd5b60209182820401919006915054906101000a900460ff1681565b610d88611a6a565b610d9d6001600160a01b038316333084611e5b565b6001600160a01b03821660009081526007602052604081206001018054839290610dc8908490612e3f565b90915550506040518181526001600160a01b038316907f2f157267d58fb3811d404d8f01f31e74f6025323e0ff66498795b9394f0ee75d906020015b60405180910390a25050565b6001600160a01b037f0000000000000000000000000000000000000000000000000000000000000000163003610e595760405163703e46dd60e11b815260040160405180910390fd5b610e62826120a0565b610e6c82826120a8565b5050565b600081810b1580610e8557506003198260000b125b80610e93575060058260000b135b15610ea057506000610f1d565b6000808360000b12610ebc57610eb7836003612e52565b610ec7565b610ec7836004612e52565b905061271060038260ff1660098110610ee257610ee2612e73565b600891828204019190066004029054906101000a900463ffffffff1663ffffffff1685610f0f9190612e89565b610f199190612ea0565b9150505b92915050565b6000806000610f306127b5565b610f386127b5565b6001600160a01b0386166000908152600b602052604090819020805460018201546002830154845161012081019095529293919290916003850190600c8601908260098282826020028201915b815481526020019060010190808311610f855750506040805161012081019182905294965085935060099250905082845b815481526020019060010190808311610fb65750505050509050955095509550955095505091939590929450565b6000306001600160a01b037f0000000000000000000000000000000000000000000000000000000000000000161461102f5760405163703e46dd60e11b815260040160405180910390fd5b507f360894a13ba1a3210667c828492db98dca3e2076cc3735a920a3ca505d382bbc90565b600054600290600160401b900460ff168061107e575060005467ffffffffffffffff808316911610155b1561109c5760405163f92ee8a960e01b815260040160405180910390fd5b600080547e026ac00001356000009ab000004d580000339000002c2400002904000027d8600355600480546204d58063ffffffff199091161790556005805468ffffffffffffffffff1990811668050403020102030405179091556006805463010101019083161790551667ffffffffffffffff8316908117600160401b1760ff60401b19169091556040519081527fc7f505b2f371ae2175ee4913f4499e1f2633a7b5936321eed1cdaeb6115181d290602001610d4b565b6001600160a01b0383166000908152600a602052604090208054606091908085106111925750506040805160008152602081019091529050611263565b600061119e8587612e3f565b9050818111156111ab5750805b60006111b78783612ec2565b67ffffffffffffffff8111156111cf576111cf612adf565b6040519080825280602002602001820160405280156111f8578160200160208202803683370190505b509050865b8281101561125c5784818154811061121757611217612e73565b906000526020600020015482898361122f9190612ec2565b8151811061123f5761123f612e73565b60209081029190910101528061125481612ed5565b9150506111fd565b5093505050505b9392505050565b611272611a6a565b6001600160a01b038216600081815260076020908152604091829020805460ff191685151590811790915591519182527f644d1c3c30a6c2c86213723bbdb4a97f9f35068beda38b6ca0cb5e7e043459ff9101610e04565b6112d2611a6a565b6112dc6000612159565b565b6001600160a01b0382166000908152600d602090815260408083208484529091528120549080808315611337575050506000818152600c6020526040902060028101546003820154600490920154909160ff1690611344565b5060009250829150819050805b92959194509250565b6000805460ff600160401b820416159167ffffffffffffffff90911690811580156113755750825b905060008267ffffffffffffffff1660011480156113925750303b155b9050811580156113a0575080155b156113be5760405163f92ee8a960e01b815260040160405180910390fd5b6000805467ffffffffffffffff1916600117905583156113ec576000805460ff60401b1916600160401b1790555b6113f5336121cb565b6113fd6121fe565b611405612230565b61140d612262565b8315611455576000805460ff60401b19169055604051600181527fc7f505b2f371ae2175ee4913f4499e1f2633a7b5936321eed1cdaeb6115181d29060200160405180910390a15b50505050565b600e546001600160a01b0316331480159061149a5750600054600160481b90046001600160a01b03166001600160a01b0316336001600160a01b031614155b156114b857604051631de3f8c960e21b815260040160405180910390fd5b6040805160a0810182526001600160a01b03848116808352602080840186815242858701908152600060608701818152608088018281528c8352600c8652898320985189546001600160a01b03191698169790971788559251600188015590516002870155905160038601805460ff19169115159190911790559251600490940193909355808252600d8352838220858352835290839020869055915183815285917ff8f05d40bc4d4e9faea7feff0042a427e6885d114dfdea1db6f96f73088ef4ca910160405180910390a3505050565b600a60205281600052604060002081815481106115a657600080fd5b90600052602060002001600091509150505481565b600381600981106115cb57600080fd5b60089182820401919006600402915054906101000a900463ffffffff1681565b60068160098110610d6657600080fd5b600081810b158061161057506003198260000b125b8061161e575060058260000b135b1561162b57506000610f1d565b6000808360000b1261164757611642836003612e52565b611652565b611652836004612e52565b6001600160a01b038516600090815260076020526040902060010154909150610f19908261228c565b611683611a6a565b6001600160a01b0381166116b257604051631e4fbdf760e01b8152600060048201526024015b60405180910390fd5b610ad981612159565b6116c3611a6a565b6001600160a01b038216600090815260076020526040902060018101548211156117265760405162461bcd60e51b8152602060048201526014602482015273496e73756666696369656e742062616c616e636560601b60448201526064016116a9565b8181600101600082825461173a9190612ec2565b909155505060005461176790600160481b90046001600160a01b03166001600160a01b0385169084611a06565b826001600160a01b03167fb19117f167b3ce8ba8e4f902dba7563f7fed1338a47804cc7dfaeee885968cba836040516117a291815260200190565b60405180910390a2505050565b600e546000906001600160a01b031633148015906117f15750600054600160481b90046001600160a01b03166001600160a01b0316336001600160a01b031614155b1561180f57604051631de3f8c960e21b815260040160405180910390fd5b611817611b32565b600086815260086020526040902080546001600160a01b031661184d5760405163469bfa9160e01b815260040160405180910390fd5b6000600882015460ff16600381111561186857611868612a09565b14611886576040516305d09e5f60e01b815260040160405180910390fd5b610e1081600701546118989190612e3f565b4211156118b85760405163b367976160e01b815260040160405180910390fd5b80600501546002876040516020016118d291815260200190565b60408051601f19818403018152908290526118ec91612eee565b602060405180830381855afa158015611909573d6000803e3d6000fd5b5050506040513d601f19601f8201168201806040525081019061192c9190612f1d565b1461194a576040516316d3f5ad60e31b815260040160405180910390fd5b6004810154841461196e5760405163341c3a1160e01b815260040160405180910390fd5b60058101546000908152600c6020526040812060040187905560038201546119cd918391810b126119b4576003808401546119af9160009190910b90612e52565b6119c7565b60038301546119c79060000b6004612e52565b85612308565b6010805491935060006119df83612ed5565b91905055506119f38782858888878c612534565b506119fd60018055565b95945050505050565b6040516001600160a01b03838116602483015260448201839052611a6591859182169063a9059cbb906064015b604051602081830303815290604052915060e01b6020820180516001600160e01b0383818316178352505050506125fa565b505050565b6000546001600160a01b03600160481b9091041633146112dc5760405163118cdaa760e01b81523360048201526024016116a9565b611aa7611b5c565b6002805460ff191660011790557f62e78cea01bee320cd4e420270b5ea74000d11b0c9f74754ebdbfc544b05a258611adc3390565b6040516001600160a01b03909116815260200160405180910390a1565b611b016126ae565b6002805460ff191690557f5db9ee0a495bf2e6ff9c91a7834c1ba4fdd244a5e8aa4e537bd38aeae4b073aa33611adc565b600260015403611b5557604051633ee5aeb560e01b815260040160405180910390fd5b6002600155565b60025460ff16156112dc5760405163d93c066560e01b815260040160405180910390fd5b6000818152600c6020526040902080546001600160a01b0316611bb657604051635b34156960e11b815260040160405180910390fd5b600381015460ff1615611bdc57604051635be00f0f60e11b815260040160405180910390fd5b80546001600160a01b03163314611c06576040516328a4d61560e01b815260040160405180910390fd5b600301805460ff1916600117905550565b6001600160a01b0385166000908152600760205260408120805460ff16611c5157604051631fcf8c4760e11b815260040160405180910390fd5b670de0b6b3a7640000861015611c7a5760405163f2c2fd8b60e01b815260040160405180910390fd5b8460000b60001480611c9057506003198560000b125b80611c9e575060058560000b135b15611cbc5760405163eff9b19d60e01b815260040160405180910390fd5b60008560000b12611cd757611cd2856003612e52565b611ce2565b611ce2856004612e52565b915060058260ff1660098110611cfa57611cfa612e73565b602081049091015460ff601f9092166101000a9004168314611d2f5760405163341c3a1160e01b815260040160405180910390fd5b60005b83811015611d97576001858583818110611d4e57611d4e612e73565b9050602002016020810190611d639190612f47565b60ff161115611d855760405163341c3a1160e01b815260040160405180910390fd5b80611d8f81612ed5565b915050611d32565b506000611da882600101548461228c565b905080871115611dcb57604051632a79844f60e11b815260040160405180910390fd5b60008761271060038660ff1660098110611de757611de7612e73565b600891828204019190066004029054906101000a900463ffffffff1663ffffffff168a611e149190612e89565b611e1e9190612ea0565b611e289190612ec2565b90508083600101541015611e4f57604051639c220f0360e01b815260040160405180910390fd5b50505095945050505050565b6040516001600160a01b0384811660248301528381166044830152606482018390526114559186918216906323b872dd90608401611a33565b6000600c60008381526020019081526020016000209050600081600101549050604051806101200160405280336001600160a01b03168152602001896001600160a01b031681526020018881526020018760000b815260200186868080602002602001604051908101604052809392919081815260200183836020028082843760009201829052509385525050506020820186905260408201849052426060830152608090910152600084815260086020908152604091829020835181546001600160a01b039182166001600160a01b031991821617835585840151600184018054919093169116179055918301516002830155606083015160038301805460ff90921660ff1990921691909117905560808301518051611fbb92600485019201906127d4565b5060a0820151600582015560c0820151600682015560e0820151600782015561010082015160088201805460ff19166001836003811115611ffe57611ffe612a09565b021790555050336000908152600a602090815260408220805460018101825590835290822001859055600f805492509061203783612ed5565b9190505550876001600160a01b0316336001600160a01b0316847ff9a1ecad3a3727e918f3036d04cb3dc8216ded060c6f9972d571a187b9ac5f9c8a8a8a8a88604051612088959493929190612fa3565b60405180910390a45050505050505050565b60018055565b610ad9611a6a565b6120b1826126d1565b805115610e6c576000826001600160a01b0316826040516120d29190612eee565b600060405180830381855af49150503d806000811461210d576040519150601f19603f3d011682016040523d82523d6000602084013e612112565b606091505b5050905080611a655760405162461bcd60e51b81526020600482015260136024820152721d5c19dc9859194818d85b1b0819985a5b1959606a1b60448201526064016116a9565b600080546001600160a01b03838116600160481b8181027fffffff0000000000000000000000000000000000000000ffffffffffffffffff851617855560405193049190911692909183917f8be0079c531659141344cd1fd0a4f28419497f9722a3daafe3b4186f6b6457e091a35050565b600054600160401b900460ff166121f557604051631afcd79f60e31b815260040160405180910390fd5b610ad98161272b565b600054600160401b900460ff1661222857604051631afcd79f60e31b815260040160405180910390fd5b6112dc612755565b600054600160401b900460ff1661225a57604051631afcd79f60e31b815260040160405180910390fd5b6112dc61277f565b600054600160401b900460ff166112dc57604051631afcd79f60e31b815260040160405180910390fd5b60008260000361229e57506000610f1d565b60006127106122ae600a86612e89565b6122b89190612ea0565b9050600060038460ff16600981106122d2576122d2612e73565b60088104919091015460079091166004026101000a900463ffffffff169050806122fe83614e20612e89565b6119fd9190612ea0565b60018301546001600160a01b03908116600090815260076020908152604080832087549094168352600b90915281208054919291818461234783612ed5565b919050555085600201548160010160008282546123649190612e3f565b90915550506003810160ff86166009811061238157612381612e73565b01805490600061239083612ed5565b919050555083156124a85761271060038660ff16600981106123b4576123b4612e73565b600891828204019190066004029054906101000a900463ffffffff1663ffffffff1687600201546123e59190612e89565b6123ef9190612ea0565b60088701805460ff1916600117905560028701549093506124109084612ec2565b8260010160008282546124239190612ec2565b9091555050600286015460009061243a9085612fd8565b9050808260020160008282546124509190612fff565b90915550819050600c830160ff88166009811061246f5761246f612e73565b01600082825461247f9190612fff565b9091555050865460018801546124a2916001600160a01b03918216911686611a06565b5061252b565b60088601805460ff191660029081179091558601546001830180546000955085906124d4908490612e3f565b9250508190555085600201548160020160008282546124f39190612fd8565b90915550506002860154600c820160ff87166009811061251557612515612e73565b0160008282546125259190612fd8565b90915550505b50509392505050565b85546040516001600160a01b039091169088907fd479e5363d7deb942fbd2f6ded7d4f083629b5ecc35161580704ba54ec64f8b79061257c9089908990899089908990613027565b60405180910390a3600186015460028701546003880154600689015460078a01546040516001600160a01b03909516948c947f165018d6a6ca112f1d74718ba9fe02402396632664b51e2db2ca3a1d1b0a582c946125e994919360009190910b9260048f01929190613057565b60405180910390a350505050505050565b600080836001600160a01b0316836040516126159190612eee565b6000604051808303816000865af19150503d8060008114612652576040519150601f19603f3d011682016040523d82523d6000602084013e612657565b606091505b509150915081158061268557508051158015906126855750808060200190518101906126839190613654565b155b1561145557604051635274afe760e01b81526001600160a01b03851660048201526024016116a9565b60025460ff166112dc57604051638dfc202b60e01b815260040160405180910390fd5b806001600160a01b03163b60000361270757604051634c9c8ce360e01b81526001600160a01b03821660048201526024016116a9565b7f360894a13ba1a3210667c828492db98dca3e2076cc3735a920a3ca505d382bbc55565b600054600160401b900460ff1661168357604051631afcd79f60e31b815260040160405180910390fd5b600054600160401b900460ff1661209a57604051631afcd79f60e31b815260040160405180910390fd5b600054600160401b900460ff166127a957604051631afcd79f60e31b815260040160405180910390fd5b6002805460ff19169055565b6040518061012001604052806009906020820280368337509192915050565b82805482825590600052602060002090601f0160209004810192821561286a5791602002820160005b8382111561283b57835183826101000a81548160ff021916908360ff16021790555092602001926001016020816000010492830192600103026127fd565b80156128685782816101000a81549060ff021916905560010160208160000104928301926001030261283b565b505b5061287692915061287a565b5090565b5b80821115612876576000815560010161287b565b6000602082840312156128a157600080fd5b5035919050565b80356001600160a01b03811681146128bf57600080fd5b919050565b6000602082840312156128d657600080fd5b611263826128a8565b8015158114610ad957600080fd5b6000602082840312156128ff57600080fd5b8135611263816128df565b8035600081900b81146128bf57600080fd5b60008083601f84011261292e57600080fd5b50813567ffffffffffffffff81111561294657600080fd5b6020830191508360208260051b850101111561296157600080fd5b9250929050565b60008060008060008060a0878903121561298157600080fd5b61298a876128a8565b95506020870135945061299f6040880161290a565b9350606087013567ffffffffffffffff8111156129bb57600080fd5b6129c789828a0161291c565b979a9699509497949695608090950135949350505050565b600080604083850312156129f257600080fd5b6129fb836128a8565b946020939093013593505050565b634e487b7160e01b600052602160045260246000fd5b60048110612a3d57634e487b7160e01b600052602160045260246000fd5b9052565b6001600160a01b038a81168252891660208083019190915260408201899052600088810b6060840152610120608084018190528851908401819052909161014084019189820191845b82811015612aa957835160ff1685529381019392810192600101612a8a565b50505050809150508560a08301528460c08301528360e0830152612ad1610100830184612a1f565b9a9950505050505050505050565b634e487b7160e01b600052604160045260246000fd5b60008060408385031215612b0857600080fd5b612b11836128a8565b9150602083013567ffffffffffffffff80821115612b2e57600080fd5b818501915085601f830112612b4257600080fd5b813581811115612b5457612b54612adf565b604051601f8201601f19908116603f01168101908382118183101715612b7c57612b7c612adf565b81604052828152886020848701011115612b9557600080fd5b8260208601602083013760006020848301015280955050505050509250929050565b60008060408385031215612bca57600080fd5b82359150612bda6020840161290a565b90509250929050565b60006102a08201905086825260208681840152856040840152606083018560005b6009811015612c2157815183529183019190830190600101612c04565b50505061018083018460005b6009811015612c4a57815183529183019190830190600101612c2d565b505050509695505050505050565b600080600060608486031215612c6d57600080fd5b612c76846128a8565b95602085013595506040909401359392505050565b6020808252825182820181905260009190848201906040850190845b81811015612cc357835183529284019291840191600101612ca7565b50909695505050505050565b60008060408385031215612ce257600080fd5b612ceb836128a8565b91506020830135612cfb816128df565b809150509250929050565b600080600060608486031215612d1b57600080fd5b83359250612d2b602085016128a8565b9150604084013590509250925092565b6001600160a01b0389811682528816602082015260408101879052600086900b60608201526080810185905260a0810184905260c081018390526101008101612d8760e0830184612a1f565b9998505050505050505050565b60008060408385031215612da757600080fd5b612db0836128a8565b9150612bda6020840161290a565b600080600080600060808688031215612dd657600080fd5b8535945060208601359350604086013567ffffffffffffffff811115612dfb57600080fd5b612e078882890161291c565b9094509250506060860135612e1b816128df565b809150509295509295909350565b634e487b7160e01b600052601160045260246000fd5b80820180821115610f1d57610f1d612e29565b600081810b9083900b01607f8113607f1982121715610f1d57610f1d612e29565b634e487b7160e01b600052603260045260246000fd5b8082028115828204841417610f1d57610f1d612e29565b600082612ebd57634e487b7160e01b600052601260045260246000fd5b500490565b81810381811115610f1d57610f1d612e29565b600060018201612ee757612ee7612e29565b5060010190565b6000825160005b81811015612f0f5760208186018101518583015201612ef5565b506000920191825250919050565b600060208284031215612f2f57600080fd5b5051919050565b803560ff811681146128bf57600080fd5b600060208284031215612f5957600080fd5b61126382612f36565b8183526000602080850194508260005b85811015612f985760ff612f8583612f36565b1687529582019590820190600101612f72565b509495945050505050565b8581528460000b6020820152608060408201526000612fc6608083018587612f62565b90508260608301529695505050505050565b8181036000831280158383131683831282161715612ff857612ff8612e29565b5092915050565b808201828112600083128015821682158216171561301f5761301f612e29565b505092915050565b8515158152608060208201526000613043608083018688612f62565b604083019490945250606001529392505050565b600060a0820187835260208760000b81850152604060a081860152828854613083818690815260200190565b60008b81526020812096509092505b81601f8201101561330657855460ff8082168552600882901c811687860152601082901c81168686015260606130d1818701838560181c1660ff169052565b60806130e581880184868c1c1660ff169052565b6130f960a08801848660281c1660ff169052565b60c061310e818901858760301c1660ff169052565b60e0613123818a01868860381c1660ff169052565b60ff868b1c8616166101008a01526131466101208a01868860481c1660ff169052565b61315b6101408a01868860501c1660ff169052565b6131706101608a01868860581c1660ff169052565b60ff86851c8616166101808a01526131936101a08a01868860681c1660ff169052565b6131a86101c08a01868860701c1660ff169052565b6131bd6101e08a01868860781c1660ff169052565b60ff86841c8616166102008a01526131e06102208a01868860881c1660ff169052565b6131f56102408a01868860901c1660ff169052565b61320a6102608a01868860981c1660ff169052565b61321f6102808a01868860a01c1660ff169052565b6132346102a08a01868860a81c1660ff169052565b6132496102c08a01868860b01c1660ff169052565b61325e6102e08a01868860b81c1660ff169052565b60ff86831c8616166103008a01526132816103208a01868860c81c1660ff169052565b6132966103408a01868860d01c1660ff169052565b6132ab6103608a01868860d81c1660ff169052565b60ff86821c8616166103808a0152505050506132d26103a08601828460e81c1660ff169052565b6132e76103c08601828460f01c1660ff169052565b5060f81c6103e084015260019590950194610400909201918401613092565b9454948181101561331f5760ff86168352918401916001015b8181101561333957600886901c60ff168352918401916001015b8181101561335357601086901c60ff168352918401916001015b8181101561336d57601886901c60ff168352918401916001015b818110156133855785851c60ff168352918401916001015b8181101561339f57602886901c60ff168352918401916001015b818110156133b957603086901c60ff168352918401916001015b818110156133d357603886901c60ff168352918401916001015b818110156133eb5785841c60ff168352918401916001015b8181101561340557604886901c60ff168352918401916001015b8181101561341f57605086901c60ff168352918401916001015b8181101561343957605886901c60ff168352918401916001015b8181101561345357606086901c60ff168352918401916001015b8181101561346d57606886901c60ff168352918401916001015b8181101561348757607086901c60ff168352918401916001015b818110156134a157607886901c60ff168352918401916001015b818110156134bb57608086901c60ff168352918401916001015b818110156134d557608886901c60ff168352918401916001015b818110156134ef57609086901c60ff168352918401916001015b8181101561350957609886901c60ff168352918401916001015b818110156135235760a086901c60ff168352918401916001015b8181101561353d5760a886901c60ff168352918401916001015b818110156135575760b086901c60ff168352918401916001015b818110156135715760b886901c60ff168352918401916001015b8181101561358b5760c086901c60ff168352918401916001015b818110156135a55760c886901c60ff168352918401916001015b818110156135bf5760d086901c60ff168352918401916001015b818110156135d95760d886901c60ff168352918401916001015b818110156135f35760e086901c60ff168352918401916001015b8181101561360d5760e886901c60ff168352918401916001015b818110156136275760f086901c60ff168352918401916001015b8181101561363b5760f886901c8352918401915b5050606086019790975250505050608001529392505050565b60006020828403121561366657600080fd5b8151611263816128df56fea264697066735822122029ca14aa770d0229d11a85bff08fb91f90e2033551e7040185b2a03ddee2ac8d64736f6c63430008140033",
  "linkReferences": {},
  "deployedLinkReferences": {}
}